{
  "_format": "hh-sol-artifact-1",
  "contractName": "dConnect",
  "sourceName": "contracts/dConnect.sol",
  "abi": [
    {
      "inputs": [],
      "stateMutability": "nonpayable",
      "type": "constructor"
    },
    {
      "anonymous": false,
      "inputs": [
        {
          "indexed": true,
          "internalType": "address",
          "name": "owner",
          "type": "address"
        },
        {
          "indexed": true,
          "internalType": "address",
          "name": "approved",
          "type": "address"
        },
        {
          "indexed": true,
          "internalType": "uint256",
          "name": "tokenId",
          "type": "uint256"
        }
      ],
      "name": "Approval",
      "type": "event"
    },
    {
      "anonymous": false,
      "inputs": [
        {
          "indexed": true,
          "internalType": "address",
          "name": "owner",
          "type": "address"
        },
        {
          "indexed": true,
          "internalType": "address",
          "name": "operator",
          "type": "address"
        },
        {
          "indexed": false,
          "internalType": "bool",
          "name": "approved",
          "type": "bool"
        }
      ],
      "name": "ApprovalForAll",
      "type": "event"
    },
    {
      "anonymous": false,
      "inputs": [
        {
          "indexed": true,
          "internalType": "address",
          "name": "previousOwner",
          "type": "address"
        },
        {
          "indexed": true,
          "internalType": "address",
          "name": "newOwner",
          "type": "address"
        }
      ],
      "name": "OwnershipTransferred",
      "type": "event"
    },
    {
      "anonymous": false,
      "inputs": [
        {
          "indexed": true,
          "internalType": "address",
          "name": "from",
          "type": "address"
        },
        {
          "indexed": true,
          "internalType": "address",
          "name": "to",
          "type": "address"
        },
        {
          "indexed": true,
          "internalType": "uint256",
          "name": "tokenId",
          "type": "uint256"
        }
      ],
      "name": "Transfer",
      "type": "event"
    },
    {
      "inputs": [
        {
          "internalType": "address",
          "name": "to",
          "type": "address"
        },
        {
          "internalType": "uint256",
          "name": "tokenId",
          "type": "uint256"
        }
      ],
      "name": "approve",
      "outputs": [],
      "stateMutability": "nonpayable",
      "type": "function"
    },
    {
      "inputs": [
        {
          "internalType": "address",
          "name": "owner",
          "type": "address"
        }
      ],
      "name": "balanceOf",
      "outputs": [
        {
          "internalType": "uint256",
          "name": "",
          "type": "uint256"
        }
      ],
      "stateMutability": "view",
      "type": "function"
    },
    {
      "inputs": [
        {
          "internalType": "string",
          "name": "_name",
          "type": "string"
        },
        {
          "internalType": "address",
          "name": "_userAddress",
          "type": "address"
        }
      ],
      "name": "createUser",
      "outputs": [
        {
          "internalType": "bool",
          "name": "",
          "type": "bool"
        }
      ],
      "stateMutability": "nonpayable",
      "type": "function"
    },
    {
      "inputs": [
        {
          "internalType": "uint256",
          "name": "newId",
          "type": "uint256"
        }
      ],
      "name": "deletePost",
      "outputs": [
        {
          "internalType": "bool",
          "name": "",
          "type": "bool"
        }
      ],
      "stateMutability": "nonpayable",
      "type": "function"
    },
    {
      "inputs": [
        {
          "internalType": "address",
          "name": "self",
          "type": "address"
        },
        {
          "internalType": "uint256",
          "name": "_postId",
          "type": "uint256"
        }
      ],
      "name": "disLikePost",
      "outputs": [
        {
          "internalType": "bool",
          "name": "",
          "type": "bool"
        }
      ],
      "stateMutability": "nonpayable",
      "type": "function"
    },
    {
      "inputs": [
        {
          "internalType": "address",
          "name": "self",
          "type": "address"
        },
        {
          "internalType": "address",
          "name": "_followingAdd",
          "type": "address"
        }
      ],
      "name": "followUser",
      "outputs": [
        {
          "internalType": "bool",
          "name": "",
          "type": "bool"
        }
      ],
      "stateMutability": "nonpayable",
      "type": "function"
    },
    {
      "inputs": [
        {
          "internalType": "uint256",
          "name": "tokenId",
          "type": "uint256"
        }
      ],
      "name": "getApproved",
      "outputs": [
        {
          "internalType": "address",
          "name": "",
          "type": "address"
        }
      ],
      "stateMutability": "view",
      "type": "function"
    },
    {
      "inputs": [
        {
          "internalType": "uint256",
          "name": "postID",
          "type": "uint256"
        }
      ],
      "name": "getPost",
      "outputs": [
        {
          "components": [
            {
              "internalType": "uint256",
              "name": "id",
              "type": "uint256"
            },
            {
              "internalType": "address",
              "name": "owner",
              "type": "address"
            },
            {
              "internalType": "string",
              "name": "content",
              "type": "string"
            },
            {
              "internalType": "string",
              "name": "post_name",
              "type": "string"
            },
            {
              "internalType": "string",
              "name": "description",
              "type": "string"
            },
            {
              "internalType": "uint256",
              "name": "likesCount",
              "type": "uint256"
            },
            {
              "internalType": "bool",
              "name": "eXists",
              "type": "bool"
            },
            {
              "internalType": "uint256",
              "name": "timestamp",
              "type": "uint256"
            }
          ],
          "internalType": "struct dConnect.PostStruct",
          "name": "",
          "type": "tuple"
        }
      ],
      "stateMutability": "view",
      "type": "function"
    },
    {
      "inputs": [
        {
          "internalType": "address",
          "name": "_userAddress",
          "type": "address"
        }
      ],
      "name": "getUser",
      "outputs": [
        {
          "components": [
            {
              "internalType": "string",
              "name": "name",
              "type": "string"
            },
            {
              "internalType": "address",
              "name": "userAddress",
              "type": "address"
            },
            {
              "internalType": "string",
              "name": "profile_link",
              "type": "string"
            },
            {
              "internalType": "uint256[]",
              "name": "postIds",
              "type": "uint256[]"
            },
            {
              "internalType": "uint256[]",
              "name": "likeIds",
              "type": "uint256[]"
            },
            {
              "internalType": "uint256[]",
              "name": "dislikeIds",
              "type": "uint256[]"
            },
            {
              "internalType": "address[]",
              "name": "following",
              "type": "address[]"
            },
            {
              "internalType": "address[]",
              "name": "unfollowing",
              "type": "address[]"
            },
            {
              "internalType": "address[]",
              "name": "followers",
              "type": "address[]"
            },
            {
              "internalType": "address[]",
              "name": "unfollowers",
              "type": "address[]"
            }
          ],
          "internalType": "struct dConnect.UserStruct",
          "name": "",
          "type": "tuple"
        }
      ],
      "stateMutability": "view",
      "type": "function"
    },
    {
      "inputs": [
        {
          "internalType": "address",
          "name": "_userAddress",
          "type": "address"
        }
      ],
      "name": "getUserFollowers",
      "outputs": [
        {
          "internalType": "address[]",
          "name": "",
          "type": "address[]"
        }
      ],
      "stateMutability": "view",
      "type": "function"
    },
    {
      "inputs": [
        {
          "internalType": "address",
          "name": "_userAddress",
          "type": "address"
        }
      ],
      "name": "getUserFollowing",
      "outputs": [
        {
          "internalType": "address[]",
          "name": "",
          "type": "address[]"
        }
      ],
      "stateMutability": "view",
      "type": "function"
    },
    {
      "inputs": [
        {
          "internalType": "address",
          "name": "_userAddress",
          "type": "address"
        }
      ],
      "name": "getUserLikeIds",
      "outputs": [
        {
          "internalType": "uint256[]",
          "name": "",
          "type": "uint256[]"
        }
      ],
      "stateMutability": "view",
      "type": "function"
    },
    {
      "inputs": [
        {
          "internalType": "address",
          "name": "_userAddress",
          "type": "address"
        }
      ],
      "name": "getUserPostIds",
      "outputs": [
        {
          "internalType": "uint256[]",
          "name": "",
          "type": "uint256[]"
        }
      ],
      "stateMutability": "view",
      "type": "function"
    },
    {
      "inputs": [],
      "name": "getUsers",
      "outputs": [
        {
          "internalType": "address[]",
          "name": "",
          "type": "address[]"
        }
      ],
      "stateMutability": "view",
      "type": "function"
    },
    {
      "inputs": [
        {
          "internalType": "address",
          "name": "owner",
          "type": "address"
        },
        {
          "internalType": "address",
          "name": "operator",
          "type": "address"
        }
      ],
      "name": "isApprovedForAll",
      "outputs": [
        {
          "internalType": "bool",
          "name": "",
          "type": "bool"
        }
      ],
      "stateMutability": "view",
      "type": "function"
    },
    {
      "inputs": [
        {
          "internalType": "address",
          "name": "self",
          "type": "address"
        },
        {
          "internalType": "uint256",
          "name": "_postId",
          "type": "uint256"
        }
      ],
      "name": "likePost",
      "outputs": [
        {
          "internalType": "bool",
          "name": "",
          "type": "bool"
        }
      ],
      "stateMutability": "nonpayable",
      "type": "function"
    },
    {
      "inputs": [
        {
          "internalType": "address",
          "name": "_owner",
          "type": "address"
        },
        {
          "internalType": "string",
          "name": "_content",
          "type": "string"
        },
        {
          "internalType": "string",
          "name": "post_name",
          "type": "string"
        },
        {
          "internalType": "string",
          "name": "post_description",
          "type": "string"
        }
      ],
      "name": "mint",
      "outputs": [
        {
          "internalType": "uint256",
          "name": "",
          "type": "uint256"
        }
      ],
      "stateMutability": "nonpayable",
      "type": "function"
    },
    {
      "inputs": [],
      "name": "name",
      "outputs": [
        {
          "internalType": "string",
          "name": "",
          "type": "string"
        }
      ],
      "stateMutability": "view",
      "type": "function"
    },
    {
      "inputs": [],
      "name": "owner",
      "outputs": [
        {
          "internalType": "address",
          "name": "",
          "type": "address"
        }
      ],
      "stateMutability": "view",
      "type": "function"
    },
    {
      "inputs": [
        {
          "internalType": "uint256",
          "name": "tokenId",
          "type": "uint256"
        }
      ],
      "name": "ownerOf",
      "outputs": [
        {
          "internalType": "address",
          "name": "",
          "type": "address"
        }
      ],
      "stateMutability": "view",
      "type": "function"
    },
    {
      "inputs": [],
      "name": "renounceOwnership",
      "outputs": [],
      "stateMutability": "nonpayable",
      "type": "function"
    },
    {
      "inputs": [
        {
          "internalType": "address",
          "name": "from",
          "type": "address"
        },
        {
          "internalType": "address",
          "name": "to",
          "type": "address"
        },
        {
          "internalType": "uint256",
          "name": "tokenId",
          "type": "uint256"
        }
      ],
      "name": "safeTransferFrom",
      "outputs": [],
      "stateMutability": "nonpayable",
      "type": "function"
    },
    {
      "inputs": [
        {
          "internalType": "address",
          "name": "from",
          "type": "address"
        },
        {
          "internalType": "address",
          "name": "to",
          "type": "address"
        },
        {
          "internalType": "uint256",
          "name": "tokenId",
          "type": "uint256"
        },
        {
          "internalType": "bytes",
          "name": "data",
          "type": "bytes"
        }
      ],
      "name": "safeTransferFrom",
      "outputs": [],
      "stateMutability": "nonpayable",
      "type": "function"
    },
    {
      "inputs": [
        {
          "internalType": "address",
          "name": "operator",
          "type": "address"
        },
        {
          "internalType": "bool",
          "name": "approved",
          "type": "bool"
        }
      ],
      "name": "setApprovalForAll",
      "outputs": [],
      "stateMutability": "nonpayable",
      "type": "function"
    },
    {
      "inputs": [
        {
          "internalType": "address",
          "name": "self",
          "type": "address"
        },
        {
          "internalType": "string",
          "name": "url",
          "type": "string"
        }
      ],
      "name": "setProfile",
      "outputs": [
        {
          "internalType": "bool",
          "name": "",
          "type": "bool"
        }
      ],
      "stateMutability": "nonpayable",
      "type": "function"
    },
    {
      "inputs": [
        {
          "internalType": "bytes4",
          "name": "interfaceId",
          "type": "bytes4"
        }
      ],
      "name": "supportsInterface",
      "outputs": [
        {
          "internalType": "bool",
          "name": "",
          "type": "bool"
        }
      ],
      "stateMutability": "view",
      "type": "function"
    },
    {
      "inputs": [],
      "name": "symbol",
      "outputs": [
        {
          "internalType": "string",
          "name": "",
          "type": "string"
        }
      ],
      "stateMutability": "view",
      "type": "function"
    },
    {
      "inputs": [
        {
          "internalType": "uint256",
          "name": "tokenId",
          "type": "uint256"
        }
      ],
      "name": "tokenURI",
      "outputs": [
        {
          "internalType": "string",
          "name": "",
          "type": "string"
        }
      ],
      "stateMutability": "view",
      "type": "function"
    },
    {
      "inputs": [
        {
          "internalType": "address",
          "name": "from",
          "type": "address"
        },
        {
          "internalType": "address",
          "name": "to",
          "type": "address"
        },
        {
          "internalType": "uint256",
          "name": "tokenId",
          "type": "uint256"
        }
      ],
      "name": "transferFrom",
      "outputs": [],
      "stateMutability": "nonpayable",
      "type": "function"
    },
    {
      "inputs": [
        {
          "internalType": "address",
          "name": "newOwner",
          "type": "address"
        }
      ],
      "name": "transferOwnership",
      "outputs": [],
      "stateMutability": "nonpayable",
      "type": "function"
    },
    {
      "inputs": [
        {
          "internalType": "address",
          "name": "self",
          "type": "address"
        },
        {
          "internalType": "address",
          "name": "_followingRem",
          "type": "address"
        }
      ],
      "name": "unfollowUser",
      "outputs": [
        {
          "internalType": "bool",
          "name": "",
          "type": "bool"
        }
      ],
      "stateMutability": "nonpayable",
      "type": "function"
    }
  ],
  "bytecode": "0x60806040523480156200001157600080fd5b506040518060400160405280600881526020017f64436f6e6e6563740000000000000000000000000000000000000000000000008152506040518060400160405280600381526020017f444354000000000000000000000000000000000000000000000000000000000081525081600090816200008f919062000412565b508060019081620000a1919062000412565b505050620000c4620000b8620000ca60201b60201c565b620000d260201b60201c565b620004f9565b600033905090565b6000600660009054906101000a900473ffffffffffffffffffffffffffffffffffffffff16905081600660006101000a81548173ffffffffffffffffffffffffffffffffffffffff021916908373ffffffffffffffffffffffffffffffffffffffff1602179055508173ffffffffffffffffffffffffffffffffffffffff168173ffffffffffffffffffffffffffffffffffffffff167f8be0079c531659141344cd1fd0a4f28419497f9722a3daafe3b4186f6b6457e060405160405180910390a35050565b600081519050919050565b7f4e487b7100000000000000000000000000000000000000000000000000000000600052604160045260246000fd5b7f4e487b7100000000000000000000000000000000000000000000000000000000600052602260045260246000fd5b600060028204905060018216806200021a57607f821691505b60208210810362000230576200022f620001d2565b5b50919050565b60008190508160005260206000209050919050565b60006020601f8301049050919050565b600082821b905092915050565b6000600883026200029a7fffffffffffffffffffffffffffffffffffffffffffffffffffffffffffffffff826200025b565b620002a686836200025b565b95508019841693508086168417925050509392505050565b6000819050919050565b6000819050919050565b6000620002f3620002ed620002e784620002be565b620002c8565b620002be565b9050919050565b6000819050919050565b6200030f83620002d2565b620003276200031e82620002fa565b84845462000268565b825550505050565b600090565b6200033e6200032f565b6200034b81848462000304565b505050565b5b8181101562000373576200036760008262000334565b60018101905062000351565b5050565b601f821115620003c2576200038c8162000236565b62000397846200024b565b81016020851015620003a7578190505b620003bf620003b6856200024b565b83018262000350565b50505b505050565b600082821c905092915050565b6000620003e760001984600802620003c7565b1980831691505092915050565b6000620004028383620003d4565b9150826002028217905092915050565b6200041d8262000198565b67ffffffffffffffff811115620004395762000438620001a3565b5b62000445825462000201565b6200045282828562000377565b600060209050601f8311600181146200048a576000841562000475578287015190505b620004818582620003f4565b865550620004f1565b601f1984166200049a8662000236565b60005b82811015620004c4578489015182556001820191506020850194506020810190506200049d565b86831015620004e45784890151620004e0601f891682620003d4565b8355505b6001600288020188555050505b505050505050565b614ad180620005096000396000f3fe608060405234801561001057600080fd5b50600436106101e45760003560e01c8063598e62b01161010f578063a22cb465116100a2578063e985e9c511610071578063e985e9c514610627578063f2b6056214610657578063f2fde38b14610687578063f555ffb4146106a3576101e4565b8063a22cb4651461058f578063b88d4fde146105ab578063c87b56dd146105c7578063d0b920af146105f7576101e4565b8063715018a6116100de578063715018a6146105195780638da5cb5b1461052357806395d89b41146105415780639b7e1a751461055f576101e4565b8063598e62b0146104595780636352211e146104895780636f77926b146104b957806370a08231146104e9576101e4565b80630c8273e61161018757806340731c241161015657806340731c24146103ad57806342842e0e146103dd57806348351529146103f95780634a0706be14610429576101e4565b80630c8273e61461030157806319e771681461033157806323b872dd1461036157806326853c9b1461037d576101e4565b806306fdde03116101c357806306fdde0314610267578063081812fc14610285578063094cd5ee146102b5578063095ea7b3146102e5576101e4565b8062ce8e3e146101e957806301ffc9a714610207578063030f8f9e14610237575b600080fd5b6101f16106d3565b6040516101fe91906131f3565b60405180910390f35b610221600480360381019061021c9190613281565b610761565b60405161022e91906132c9565b60405180910390f35b610251600480360381019061024c9190613310565b610843565b60405161025e91906131f3565b60405180910390f35b61026f610913565b60405161027c91906133cd565b60405180910390f35b61029f600480360381019061029a9190613425565b6109a5565b6040516102ac9190613461565b60405180910390f35b6102cf60048036038101906102ca9190613425565b6109eb565b6040516102dc91906132c9565b60405180910390f35b6102ff60048036038101906102fa919061347c565b610ac9565b005b61031b600480360381019061031691906134bc565b610be0565b60405161032891906132c9565b60405180910390f35b61034b60048036038101906103469190613310565b610da0565b60405161035891906135ba565b60405180910390f35b61037b600480360381019061037691906135dc565b610e3a565b005b61039760048036038101906103929190613310565b610e9a565b6040516103a491906131f3565b60405180910390f35b6103c760048036038101906103c29190613425565b610f6a565b6040516103d49190613746565b60405180910390f35b6103f760048036038101906103f291906135dc565b6111dd565b005b610413600480360381019061040e919061347c565b6111fd565b60405161042091906132c9565b60405180910390f35b610443600480360381019061043e919061389d565b6112af565b6040516104509190613967565b60405180910390f35b610473600480360381019061046e9190613982565b611499565b60405161048091906132c9565b60405180910390f35b6104a3600480360381019061049e9190613425565b6114f5565b6040516104b09190613461565b60405180910390f35b6104d360048036038101906104ce9190613310565b61157b565b6040516104e09190613bce565b60405180910390f35b61050360048036038101906104fe9190613310565b611a8f565b6040516105109190613967565b60405180910390f35b610521611b46565b005b61052b611b5a565b6040516105389190613461565b60405180910390f35b610549611b84565b60405161055691906133cd565b60405180910390f35b6105796004803603810190610574919061347c565b611c16565b60405161058691906132c9565b60405180910390f35b6105a960048036038101906105a49190613c1c565b611cc8565b005b6105c560048036038101906105c09190613cfd565b611cde565b005b6105e160048036038101906105dc9190613425565b611d40565b6040516105ee91906133cd565b60405180910390f35b610611600480360381019061060c9190613310565b611e33565b60405161061e91906135ba565b60405180910390f35b610641600480360381019061063c91906134bc565b611ecd565b60405161064e91906132c9565b60405180910390f35b610671600480360381019061066c91906134bc565b611f61565b60405161067e91906132c9565b60405180910390f35b6106a1600480360381019061069c9190613310565b6121d0565b005b6106bd60048036038101906106b89190613d80565b612253565b6040516106ca91906132c9565b60405180910390f35b6060600880548060200260200160405190810160405280929190818152602001828054801561075757602002820191906000526020600020905b8160009054906101000a900473ffffffffffffffffffffffffffffffffffffffff1673ffffffffffffffffffffffffffffffffffffffff168152602001906001019080831161070d575b5050505050905090565b60007f80ac58cd000000000000000000000000000000000000000000000000000000007bffffffffffffffffffffffffffffffffffffffffffffffffffffffff1916827bffffffffffffffffffffffffffffffffffffffffffffffffffffffff1916148061082c57507f5b5e139f000000000000000000000000000000000000000000000000000000007bffffffffffffffffffffffffffffffffffffffffffffffffffffffff1916827bffffffffffffffffffffffffffffffffffffffffffffffffffffffff1916145b8061083c575061083b82612393565b5b9050919050565b6060600760008373ffffffffffffffffffffffffffffffffffffffff1673ffffffffffffffffffffffffffffffffffffffff16815260200190815260200160002060060180548060200260200160405190810160405280929190818152602001828054801561090757602002820191906000526020600020905b8160009054906101000a900473ffffffffffffffffffffffffffffffffffffffff1673ffffffffffffffffffffffffffffffffffffffff16815260200190600101908083116108bd575b50505050509050919050565b60606000805461092290613e0b565b80601f016020809104026020016040519081016040528092919081815260200182805461094e90613e0b565b801561099b5780601f106109705761010080835404028352916020019161099b565b820191906000526020600020905b81548152906001019060200180831161097e57829003601f168201915b5050505050905090565b60006109b0826123fd565b6004600083815260200190815260200160002060009054906101000a900473ffffffffffffffffffffffffffffffffffffffff169050919050565b60003373ffffffffffffffffffffffffffffffffffffffff166009600084815260200190815260200160002060010160009054906101000a900473ffffffffffffffffffffffffffffffffffffffff1673ffffffffffffffffffffffffffffffffffffffff1603610a91576040517f08c379a0000000000000000000000000000000000000000000000000000000008152600401610a8890613e88565b60405180910390fd5b60006009600084815260200190815260200160002060060160006101000a81548160ff02191690831515021790555060019050919050565b6000610ad4826114f5565b90508073ffffffffffffffffffffffffffffffffffffffff168373ffffffffffffffffffffffffffffffffffffffff1603610b44576040517f08c379a0000000000000000000000000000000000000000000000000000000008152600401610b3b90613f1a565b60405180910390fd5b8073ffffffffffffffffffffffffffffffffffffffff16610b63612448565b73ffffffffffffffffffffffffffffffffffffffff161480610b925750610b9181610b8c612448565b611ecd565b5b610bd1576040517f08c379a0000000000000000000000000000000000000000000000000000000008152600401610bc890613fac565b60405180910390fd5b610bdb8383612450565b505050565b60003373ffffffffffffffffffffffffffffffffffffffff168273ffffffffffffffffffffffffffffffffffffffff1603610c50576040517f08c379a0000000000000000000000000000000000000000000000000000000008152600401610c4790614018565b60405180910390fd5b600760008473ffffffffffffffffffffffffffffffffffffffff1673ffffffffffffffffffffffffffffffffffffffff168152602001908152602001600020600601829080600181540180825580915050600190039060005260206000200160009091909190916101000a81548173ffffffffffffffffffffffffffffffffffffffff021916908373ffffffffffffffffffffffffffffffffffffffff160217905550600760008373ffffffffffffffffffffffffffffffffffffffff1673ffffffffffffffffffffffffffffffffffffffff168152602001908152602001600020600801839080600181540180825580915050600190039060005260206000200160009091909190916101000a81548173ffffffffffffffffffffffffffffffffffffffff021916908373ffffffffffffffffffffffffffffffffffffffff1602179055506001905092915050565b6060600760008373ffffffffffffffffffffffffffffffffffffffff1673ffffffffffffffffffffffffffffffffffffffff168152602001908152602001600020600301805480602002602001604051908101604052809291908181526020018280548015610e2e57602002820191906000526020600020905b815481526020019060010190808311610e1a575b50505050509050919050565b610e4b610e45612448565b82612509565b610e8a576040517f08c379a0000000000000000000000000000000000000000000000000000000008152600401610e81906140aa565b60405180910390fd5b610e9583838361259e565b505050565b6060600760008373ffffffffffffffffffffffffffffffffffffffff1673ffffffffffffffffffffffffffffffffffffffff168152602001908152602001600020600801805480602002602001604051908101604052809291908181526020018280548015610f5e57602002820191906000526020600020905b8160009054906101000a900473ffffffffffffffffffffffffffffffffffffffff1673ffffffffffffffffffffffffffffffffffffffff1681526020019060010190808311610f14575b50505050509050919050565b610f7261303d565b6009600083815260200190815260200160002060405180610100016040529081600082015481526020016001820160009054906101000a900473ffffffffffffffffffffffffffffffffffffffff1673ffffffffffffffffffffffffffffffffffffffff1673ffffffffffffffffffffffffffffffffffffffff16815260200160028201805461100190613e0b565b80601f016020809104026020016040519081016040528092919081815260200182805461102d90613e0b565b801561107a5780601f1061104f5761010080835404028352916020019161107a565b820191906000526020600020905b81548152906001019060200180831161105d57829003601f168201915b5050505050815260200160038201805461109390613e0b565b80601f01602080910402602001604051908101604052809291908181526020018280546110bf90613e0b565b801561110c5780601f106110e15761010080835404028352916020019161110c565b820191906000526020600020905b8154815290600101906020018083116110ef57829003601f168201915b5050505050815260200160048201805461112590613e0b565b80601f016020809104026020016040519081016040528092919081815260200182805461115190613e0b565b801561119e5780601f106111735761010080835404028352916020019161119e565b820191906000526020600020905b81548152906001019060200180831161118157829003601f168201915b50505050508152602001600582015481526020016006820160009054906101000a900460ff161515151581526020016007820154815250509050919050565b6111f883838360405180602001604052806000815250611cde565b505050565b6000600760008473ffffffffffffffffffffffffffffffffffffffff1673ffffffffffffffffffffffffffffffffffffffff1681526020019081526020016000206004018290806001815401808255809150506001900390600052602060002001600090919091909150556001600960008481526020019081526020016000206005015461128b91906140f9565b60096000848152602001908152602001600020600501819055506001905092915050565b6000806112bc600a612897565b90506112c886826128a5565b6112d28186612ac2565b6000429050816009600084815260200190815260200160002060000181905550866009600084815260200190815260200160002060010160006101000a81548173ffffffffffffffffffffffffffffffffffffffff021916908373ffffffffffffffffffffffffffffffffffffffff1602179055508560096000848152602001908152602001600020600201908161136a91906142d9565b508460096000848152602001908152602001600020600301908161138e91906142d9565b50836009600084815260200190815260200160002060040190816113b291906142d9565b506000600960008481526020019081526020016000206005018190555060016009600084815260200190815260200160002060060160006101000a81548160ff021916908315150217905550806009600084815260200190815260200160002060070181905550600760008873ffffffffffffffffffffffffffffffffffffffff1673ffffffffffffffffffffffffffffffffffffffff16815260200190815260200160002060030182908060018154018082558091505060019003906000526020600020016000909190919091505561148c600a612ae7565b8192505050949350505050565b600081600760008573ffffffffffffffffffffffffffffffffffffffff1673ffffffffffffffffffffffffffffffffffffffff16815260200190815260200160002060020190816114ea91906142d9565b506001905092915050565b60008061150183612afd565b9050600073ffffffffffffffffffffffffffffffffffffffff168173ffffffffffffffffffffffffffffffffffffffff1603611572576040517f08c379a0000000000000000000000000000000000000000000000000000000008152600401611569906143f7565b60405180910390fd5b80915050919050565b61158361309a565b600760008373ffffffffffffffffffffffffffffffffffffffff1673ffffffffffffffffffffffffffffffffffffffff168152602001908152602001600020604051806101400160405290816000820180546115de90613e0b565b80601f016020809104026020016040519081016040528092919081815260200182805461160a90613e0b565b80156116575780601f1061162c57610100808354040283529160200191611657565b820191906000526020600020905b81548152906001019060200180831161163a57829003601f168201915b505050505081526020016001820160009054906101000a900473ffffffffffffffffffffffffffffffffffffffff1673ffffffffffffffffffffffffffffffffffffffff1673ffffffffffffffffffffffffffffffffffffffff1681526020016002820180546116c690613e0b565b80601f01602080910402602001604051908101604052809291908181526020018280546116f290613e0b565b801561173f5780601f106117145761010080835404028352916020019161173f565b820191906000526020600020905b81548152906001019060200180831161172257829003601f168201915b505050505081526020016003820180548060200260200160405190810160405280929190818152602001828054801561179757602002820191906000526020600020905b815481526020019060010190808311611783575b50505050508152602001600482018054806020026020016040519081016040528092919081815260200182805480156117ef57602002820191906000526020600020905b8154815260200190600101908083116117db575b505050505081526020016005820180548060200260200160405190810160405280929190818152602001828054801561184757602002820191906000526020600020905b815481526020019060010190808311611833575b50505050508152602001600682018054806020026020016040519081016040528092919081815260200182805480156118d557602002820191906000526020600020905b8160009054906101000a900473ffffffffffffffffffffffffffffffffffffffff1673ffffffffffffffffffffffffffffffffffffffff168152602001906001019080831161188b575b505050505081526020016007820180548060200260200160405190810160405280929190818152602001828054801561196357602002820191906000526020600020905b8160009054906101000a900473ffffffffffffffffffffffffffffffffffffffff1673ffffffffffffffffffffffffffffffffffffffff1681526020019060010190808311611919575b50505050508152602001600882018054806020026020016040519081016040528092919081815260200182805480156119f157602002820191906000526020600020905b8160009054906101000a900473ffffffffffffffffffffffffffffffffffffffff1673ffffffffffffffffffffffffffffffffffffffff16815260200190600101908083116119a7575b5050505050815260200160098201805480602002602001604051908101604052809291908181526020018280548015611a7f57602002820191906000526020600020905b8160009054906101000a900473ffffffffffffffffffffffffffffffffffffffff1673ffffffffffffffffffffffffffffffffffffffff1681526020019060010190808311611a35575b5050505050815250509050919050565b60008073ffffffffffffffffffffffffffffffffffffffff168273ffffffffffffffffffffffffffffffffffffffff1603611aff576040517f08c379a0000000000000000000000000000000000000000000000000000000008152600401611af690614489565b60405180910390fd5b600360008373ffffffffffffffffffffffffffffffffffffffff1673ffffffffffffffffffffffffffffffffffffffff168152602001908152602001600020549050919050565b611b4e612b3a565b611b586000612bb8565b565b6000600660009054906101000a900473ffffffffffffffffffffffffffffffffffffffff16905090565b606060018054611b9390613e0b565b80601f0160208091040260200160405190810160405280929190818152602001828054611bbf90613e0b565b8015611c0c5780601f10611be157610100808354040283529160200191611c0c565b820191906000526020600020905b815481529060010190602001808311611bef57829003601f168201915b5050505050905090565b6000600760008473ffffffffffffffffffffffffffffffffffffffff1673ffffffffffffffffffffffffffffffffffffffff16815260200190815260200160002060050182908060018154018082558091505060019003906000526020600020016000909190919091505560016009600084815260200190815260200160002060050154611ca491906144a9565b60096000848152602001908152602001600020600501819055506001905092915050565b611cda611cd3612448565b8383612c7e565b5050565b611cef611ce9612448565b83612509565b611d2e576040517f08c379a0000000000000000000000000000000000000000000000000000000008152600401611d25906140aa565b60405180910390fd5b611d3a84848484612dea565b50505050565b6060611d4b82612e46565b611d8a576040517f08c379a0000000000000000000000000000000000000000000000000000000008152600401611d8190614529565b60405180910390fd5b6000600b60008481526020019081526020016000208054611daa90613e0b565b80601f0160208091040260200160405190810160405280929190818152602001828054611dd690613e0b565b8015611e235780601f10611df857610100808354040283529160200191611e23565b820191906000526020600020905b815481529060010190602001808311611e0657829003601f168201915b5050505050905080915050919050565b6060600760008373ffffffffffffffffffffffffffffffffffffffff1673ffffffffffffffffffffffffffffffffffffffff168152602001908152602001600020600401805480602002602001604051908101604052809291908181526020018280548015611ec157602002820191906000526020600020905b815481526020019060010190808311611ead575b50505050509050919050565b6000600560008473ffffffffffffffffffffffffffffffffffffffff1673ffffffffffffffffffffffffffffffffffffffff16815260200190815260200160002060008373ffffffffffffffffffffffffffffffffffffffff1673ffffffffffffffffffffffffffffffffffffffff16815260200190815260200160002060009054906101000a900460ff16905092915050565b600080600090505b600760008573ffffffffffffffffffffffffffffffffffffffff1673ffffffffffffffffffffffffffffffffffffffff168152602001908152602001600020600601805490508110156121c5578273ffffffffffffffffffffffffffffffffffffffff16600760008673ffffffffffffffffffffffffffffffffffffffff1673ffffffffffffffffffffffffffffffffffffffff168152602001908152602001600020600601828154811061202157612020614549565b5b9060005260206000200160009054906101000a900473ffffffffffffffffffffffffffffffffffffffff1673ffffffffffffffffffffffffffffffffffffffff16036121b257600760008573ffffffffffffffffffffffffffffffffffffffff1673ffffffffffffffffffffffffffffffffffffffff168152602001908152602001600020600701839080600181540180825580915050600190039060005260206000200160009091909190916101000a81548173ffffffffffffffffffffffffffffffffffffffff021916908373ffffffffffffffffffffffffffffffffffffffff160217905550600760008473ffffffffffffffffffffffffffffffffffffffff1673ffffffffffffffffffffffffffffffffffffffff168152602001908152602001600020600901849080600181540180825580915050600190039060005260206000200160009091909190916101000a81548173ffffffffffffffffffffffffffffffffffffffff021916908373ffffffffffffffffffffffffffffffffffffffff1602179055506121c5565b80806121bd90614578565b915050611f69565b506001905092915050565b6121d8612b3a565b600073ffffffffffffffffffffffffffffffffffffffff168173ffffffffffffffffffffffffffffffffffffffff1603612247576040517f08c379a000000000000000000000000000000000000000000000000000000000815260040161223e90614632565b60405180910390fd5b61225081612bb8565b50565b600082600760008473ffffffffffffffffffffffffffffffffffffffff1673ffffffffffffffffffffffffffffffffffffffff16815260200190815260200160002060000190816122a491906142d9565b5081600760008473ffffffffffffffffffffffffffffffffffffffff1673ffffffffffffffffffffffffffffffffffffffff16815260200190815260200160002060010160006101000a81548173ffffffffffffffffffffffffffffffffffffffff021916908373ffffffffffffffffffffffffffffffffffffffff1602179055506008829080600181540180825580915050600190039060005260206000200160009091909190916101000a81548173ffffffffffffffffffffffffffffffffffffffff021916908373ffffffffffffffffffffffffffffffffffffffff1602179055506001905092915050565b60007f01ffc9a7000000000000000000000000000000000000000000000000000000007bffffffffffffffffffffffffffffffffffffffffffffffffffffffff1916827bffffffffffffffffffffffffffffffffffffffffffffffffffffffff1916149050919050565b61240681612e46565b612445576040517f08c379a000000000000000000000000000000000000000000000000000000000815260040161243c906143f7565b60405180910390fd5b50565b600033905090565b816004600083815260200190815260200160002060006101000a81548173ffffffffffffffffffffffffffffffffffffffff021916908373ffffffffffffffffffffffffffffffffffffffff160217905550808273ffffffffffffffffffffffffffffffffffffffff166124c3836114f5565b73ffffffffffffffffffffffffffffffffffffffff167f8c5be1e5ebec7d5bd14f71427d1e84f3dd0314c0f7b2291e5b200ac8c7c3b92560405160405180910390a45050565b600080612515836114f5565b90508073ffffffffffffffffffffffffffffffffffffffff168473ffffffffffffffffffffffffffffffffffffffff16148061255757506125568185611ecd565b5b8061259557508373ffffffffffffffffffffffffffffffffffffffff1661257d846109a5565b73ffffffffffffffffffffffffffffffffffffffff16145b91505092915050565b8273ffffffffffffffffffffffffffffffffffffffff166125be826114f5565b73ffffffffffffffffffffffffffffffffffffffff1614612614576040517f08c379a000000000000000000000000000000000000000000000000000000000815260040161260b906146c4565b60405180910390fd5b600073ffffffffffffffffffffffffffffffffffffffff168273ffffffffffffffffffffffffffffffffffffffff1603612683576040517f08c379a000000000000000000000000000000000000000000000000000000000815260040161267a90614756565b60405180910390fd5b6126908383836001612e87565b8273ffffffffffffffffffffffffffffffffffffffff166126b0826114f5565b73ffffffffffffffffffffffffffffffffffffffff1614612706576040517f08c379a00000000000000000000000000000000000000000000000000000000081526004016126fd906146c4565b60405180910390fd5b6004600082815260200190815260200160002060006101000a81549073ffffffffffffffffffffffffffffffffffffffff02191690556001600360008573ffffffffffffffffffffffffffffffffffffffff1673ffffffffffffffffffffffffffffffffffffffff168152602001908152602001600020600082825403925050819055506001600360008473ffffffffffffffffffffffffffffffffffffffff1673ffffffffffffffffffffffffffffffffffffffff16815260200190815260200160002060008282540192505081905550816002600083815260200190815260200160002060006101000a81548173ffffffffffffffffffffffffffffffffffffffff021916908373ffffffffffffffffffffffffffffffffffffffff160217905550808273ffffffffffffffffffffffffffffffffffffffff168473ffffffffffffffffffffffffffffffffffffffff167fddf252ad1be2c89b69c2b068fc378daa952ba7f163c4a11628f55a4df523b3ef60405160405180910390a46128928383836001612e8d565b505050565b600081600001549050919050565b600073ffffffffffffffffffffffffffffffffffffffff168273ffffffffffffffffffffffffffffffffffffffff1603612914576040517f08c379a000000000000000000000000000000000000000000000000000000000815260040161290b906147c2565b60405180910390fd5b61291d81612e46565b1561295d576040517f08c379a00000000000000000000000000000000000000000000000000000000081526004016129549061482e565b60405180910390fd5b61296b600083836001612e87565b61297481612e46565b156129b4576040517f08c379a00000000000000000000000000000000000000000000000000000000081526004016129ab9061482e565b60405180910390fd5b6001600360008473ffffffffffffffffffffffffffffffffffffffff1673ffffffffffffffffffffffffffffffffffffffff16815260200190815260200160002060008282540192505081905550816002600083815260200190815260200160002060006101000a81548173ffffffffffffffffffffffffffffffffffffffff021916908373ffffffffffffffffffffffffffffffffffffffff160217905550808273ffffffffffffffffffffffffffffffffffffffff16600073ffffffffffffffffffffffffffffffffffffffff167fddf252ad1be2c89b69c2b068fc378daa952ba7f163c4a11628f55a4df523b3ef60405160405180910390a4612abe600083836001612e8d565b5050565b80600b60008481526020019081526020016000209081612ae291906142d9565b505050565b6001816000016000828254019250508190555050565b60006002600083815260200190815260200160002060009054906101000a900473ffffffffffffffffffffffffffffffffffffffff169050919050565b612b42612448565b73ffffffffffffffffffffffffffffffffffffffff16612b60611b5a565b73ffffffffffffffffffffffffffffffffffffffff1614612bb6576040517f08c379a0000000000000000000000000000000000000000000000000000000008152600401612bad9061489a565b60405180910390fd5b565b6000600660009054906101000a900473ffffffffffffffffffffffffffffffffffffffff16905081600660006101000a81548173ffffffffffffffffffffffffffffffffffffffff021916908373ffffffffffffffffffffffffffffffffffffffff1602179055508173ffffffffffffffffffffffffffffffffffffffff168173ffffffffffffffffffffffffffffffffffffffff167f8be0079c531659141344cd1fd0a4f28419497f9722a3daafe3b4186f6b6457e060405160405180910390a35050565b8173ffffffffffffffffffffffffffffffffffffffff168373ffffffffffffffffffffffffffffffffffffffff1603612cec576040517f08c379a0000000000000000000000000000000000000000000000000000000008152600401612ce390614906565b60405180910390fd5b80600560008573ffffffffffffffffffffffffffffffffffffffff1673ffffffffffffffffffffffffffffffffffffffff16815260200190815260200160002060008473ffffffffffffffffffffffffffffffffffffffff1673ffffffffffffffffffffffffffffffffffffffff16815260200190815260200160002060006101000a81548160ff0219169083151502179055508173ffffffffffffffffffffffffffffffffffffffff168373ffffffffffffffffffffffffffffffffffffffff167f17307eab39ab6107e8899845ad3d59bd9653f200f220920489ca2b5937696c3183604051612ddd91906132c9565b60405180910390a3505050565b612df584848461259e565b612e0184848484612e93565b612e40576040517f08c379a0000000000000000000000000000000000000000000000000000000008152600401612e3790614998565b60405180910390fd5b50505050565b60008073ffffffffffffffffffffffffffffffffffffffff16612e6883612afd565b73ffffffffffffffffffffffffffffffffffffffff1614159050919050565b50505050565b50505050565b6000612eb48473ffffffffffffffffffffffffffffffffffffffff1661301a565b1561300d578373ffffffffffffffffffffffffffffffffffffffff1663150b7a02612edd612448565b8786866040518563ffffffff1660e01b8152600401612eff9493929190614a0d565b6020604051808303816000875af1925050508015612f3b57506040513d601f19601f82011682018060405250810190612f389190614a6e565b60015b612fbd573d8060008114612f6b576040519150601f19603f3d011682016040523d82523d6000602084013e612f70565b606091505b506000815103612fb5576040517f08c379a0000000000000000000000000000000000000000000000000000000008152600401612fac90614998565b60405180910390fd5b805181602001fd5b63150b7a0260e01b7bffffffffffffffffffffffffffffffffffffffffffffffffffffffff1916817bffffffffffffffffffffffffffffffffffffffffffffffffffffffff191614915050613012565b600190505b949350505050565b6000808273ffffffffffffffffffffffffffffffffffffffff163b119050919050565b60405180610100016040528060008152602001600073ffffffffffffffffffffffffffffffffffffffff16815260200160608152602001606081526020016060815260200160008152602001600015158152602001600081525090565b60405180610140016040528060608152602001600073ffffffffffffffffffffffffffffffffffffffff16815260200160608152602001606081526020016060815260200160608152602001606081526020016060815260200160608152602001606081525090565b600081519050919050565b600082825260208201905092915050565b6000819050602082019050919050565b600073ffffffffffffffffffffffffffffffffffffffff82169050919050565b600061315a8261312f565b9050919050565b61316a8161314f565b82525050565b600061317c8383613161565b60208301905092915050565b6000602082019050919050565b60006131a082613103565b6131aa818561310e565b93506131b58361311f565b8060005b838110156131e65781516131cd8882613170565b97506131d883613188565b9250506001810190506131b9565b5085935050505092915050565b6000602082019050818103600083015261320d8184613195565b905092915050565b6000604051905090565b600080fd5b600080fd5b60007fffffffff0000000000000000000000000000000000000000000000000000000082169050919050565b61325e81613229565b811461326957600080fd5b50565b60008135905061327b81613255565b92915050565b6000602082840312156132975761329661321f565b5b60006132a58482850161326c565b91505092915050565b60008115159050919050565b6132c3816132ae565b82525050565b60006020820190506132de60008301846132ba565b92915050565b6132ed8161314f565b81146132f857600080fd5b50565b60008135905061330a816132e4565b92915050565b6000602082840312156133265761332561321f565b5b6000613334848285016132fb565b91505092915050565b600081519050919050565b600082825260208201905092915050565b60005b8381101561337757808201518184015260208101905061335c565b60008484015250505050565b6000601f19601f8301169050919050565b600061339f8261333d565b6133a98185613348565b93506133b9818560208601613359565b6133c281613383565b840191505092915050565b600060208201905081810360008301526133e78184613394565b905092915050565b6000819050919050565b613402816133ef565b811461340d57600080fd5b50565b60008135905061341f816133f9565b92915050565b60006020828403121561343b5761343a61321f565b5b600061344984828501613410565b91505092915050565b61345b8161314f565b82525050565b60006020820190506134766000830184613452565b92915050565b600080604083850312156134935761349261321f565b5b60006134a1858286016132fb565b92505060206134b285828601613410565b9150509250929050565b600080604083850312156134d3576134d261321f565b5b60006134e1858286016132fb565b92505060206134f2858286016132fb565b9150509250929050565b600081519050919050565b600082825260208201905092915050565b6000819050602082019050919050565b613531816133ef565b82525050565b60006135438383613528565b60208301905092915050565b6000602082019050919050565b6000613567826134fc565b6135718185613507565b935061357c83613518565b8060005b838110156135ad5781516135948882613537565b975061359f8361354f565b925050600181019050613580565b5085935050505092915050565b600060208201905081810360008301526135d4818461355c565b905092915050565b6000806000606084860312156135f5576135f461321f565b5b6000613603868287016132fb565b9350506020613614868287016132fb565b925050604061362586828701613410565b9150509250925092565b600082825260208201905092915050565b600061364b8261333d565b613655818561362f565b9350613665818560208601613359565b61366e81613383565b840191505092915050565b613682816132ae565b82525050565b6000610100830160008301516136a16000860182613528565b5060208301516136b46020860182613161565b50604083015184820360408601526136cc8282613640565b915050606083015184820360608601526136e68282613640565b915050608083015184820360808601526137008282613640565b91505060a083015161371560a0860182613528565b5060c083015161372860c0860182613679565b5060e083015161373b60e0860182613528565b508091505092915050565b600060208201905081810360008301526137608184613688565b905092915050565b600080fd5b600080fd5b7f4e487b7100000000000000000000000000000000000000000000000000000000600052604160045260246000fd5b6137aa82613383565b810181811067ffffffffffffffff821117156137c9576137c8613772565b5b80604052505050565b60006137dc613215565b90506137e882826137a1565b919050565b600067ffffffffffffffff82111561380857613807613772565b5b61381182613383565b9050602081019050919050565b82818337600083830152505050565b600061384061383b846137ed565b6137d2565b90508281526020810184848401111561385c5761385b61376d565b5b61386784828561381e565b509392505050565b600082601f83011261388457613883613768565b5b813561389484826020860161382d565b91505092915050565b600080600080608085870312156138b7576138b661321f565b5b60006138c5878288016132fb565b945050602085013567ffffffffffffffff8111156138e6576138e5613224565b5b6138f28782880161386f565b935050604085013567ffffffffffffffff81111561391357613912613224565b5b61391f8782880161386f565b925050606085013567ffffffffffffffff8111156139405761393f613224565b5b61394c8782880161386f565b91505092959194509250565b613961816133ef565b82525050565b600060208201905061397c6000830184613958565b92915050565b600080604083850312156139995761399861321f565b5b60006139a7858286016132fb565b925050602083013567ffffffffffffffff8111156139c8576139c7613224565b5b6139d48582860161386f565b9150509250929050565b600082825260208201905092915050565b60006139fa826134fc565b613a0481856139de565b9350613a0f83613518565b8060005b83811015613a40578151613a278882613537565b9750613a328361354f565b925050600181019050613a13565b5085935050505092915050565b600082825260208201905092915050565b6000613a6982613103565b613a738185613a4d565b9350613a7e8361311f565b8060005b83811015613aaf578151613a968882613170565b9750613aa183613188565b925050600181019050613a82565b5085935050505092915050565b6000610140830160008301518482036000860152613ada8282613640565b9150506020830151613aef6020860182613161565b5060408301518482036040860152613b078282613640565b91505060608301518482036060860152613b2182826139ef565b91505060808301518482036080860152613b3b82826139ef565b91505060a083015184820360a0860152613b5582826139ef565b91505060c083015184820360c0860152613b6f8282613a5e565b91505060e083015184820360e0860152613b898282613a5e565b915050610100830151848203610100860152613ba58282613a5e565b915050610120830151848203610120860152613bc18282613a5e565b9150508091505092915050565b60006020820190508181036000830152613be88184613abc565b905092915050565b613bf9816132ae565b8114613c0457600080fd5b50565b600081359050613c1681613bf0565b92915050565b60008060408385031215613c3357613c3261321f565b5b6000613c41858286016132fb565b9250506020613c5285828601613c07565b9150509250929050565b600067ffffffffffffffff821115613c7757613c76613772565b5b613c8082613383565b9050602081019050919050565b6000613ca0613c9b84613c5c565b6137d2565b905082815260208101848484011115613cbc57613cbb61376d565b5b613cc784828561381e565b509392505050565b600082601f830112613ce457613ce3613768565b5b8135613cf4848260208601613c8d565b91505092915050565b60008060008060808587031215613d1757613d1661321f565b5b6000613d25878288016132fb565b9450506020613d36878288016132fb565b9350506040613d4787828801613410565b925050606085013567ffffffffffffffff811115613d6857613d67613224565b5b613d7487828801613ccf565b91505092959194509250565b60008060408385031215613d9757613d9661321f565b5b600083013567ffffffffffffffff811115613db557613db4613224565b5b613dc18582860161386f565b9250506020613dd2858286016132fb565b9150509250929050565b7f4e487b7100000000000000000000000000000000000000000000000000000000600052602260045260246000fd5b60006002820490506001821680613e2357607f821691505b602082108103613e3657613e35613ddc565b5b50919050565b7f596f752063616e6e6f742064656c657465206f74686572277320706f73740000600082015250565b6000613e72601e83613348565b9150613e7d82613e3c565b602082019050919050565b60006020820190508181036000830152613ea181613e65565b9050919050565b7f4552433732313a20617070726f76616c20746f2063757272656e74206f776e6560008201527f7200000000000000000000000000000000000000000000000000000000000000602082015250565b6000613f04602183613348565b9150613f0f82613ea8565b604082019050919050565b60006020820190508181036000830152613f3381613ef7565b9050919050565b7f4552433732313a20617070726f76652063616c6c6572206973206e6f7420746f60008201527f6b656e206f776e6572206f7220617070726f76656420666f7220616c6c000000602082015250565b6000613f96603d83613348565b9150613fa182613f3a565b604082019050919050565b60006020820190508181036000830152613fc581613f89565b9050919050565b7f596f752063616e6e6f7420666f6c6c6f7720796f757273656c662e0000000000600082015250565b6000614002601b83613348565b915061400d82613fcc565b602082019050919050565b6000602082019050818103600083015261403181613ff5565b9050919050565b7f4552433732313a2063616c6c6572206973206e6f7420746f6b656e206f776e6560008201527f72206f7220617070726f76656400000000000000000000000000000000000000602082015250565b6000614094602d83613348565b915061409f82614038565b604082019050919050565b600060208201905081810360008301526140c381614087565b9050919050565b7f4e487b7100000000000000000000000000000000000000000000000000000000600052601160045260246000fd5b6000614104826133ef565b915061410f836133ef565b9250828201905080821115614127576141266140ca565b5b92915050565b60008190508160005260206000209050919050565b60006020601f8301049050919050565b600082821b905092915050565b60006008830261418f7fffffffffffffffffffffffffffffffffffffffffffffffffffffffffffffffff82614152565b6141998683614152565b95508019841693508086168417925050509392505050565b6000819050919050565b60006141d66141d16141cc846133ef565b6141b1565b6133ef565b9050919050565b6000819050919050565b6141f0836141bb565b6142046141fc826141dd565b84845461415f565b825550505050565b600090565b61421961420c565b6142248184846141e7565b505050565b5b818110156142485761423d600082614211565b60018101905061422a565b5050565b601f82111561428d5761425e8161412d565b61426784614142565b81016020851015614276578190505b61428a61428285614142565b830182614229565b50505b505050565b600082821c905092915050565b60006142b060001984600802614292565b1980831691505092915050565b60006142c9838361429f565b9150826002028217905092915050565b6142e28261333d565b67ffffffffffffffff8111156142fb576142fa613772565b5b6143058254613e0b565b61431082828561424c565b600060209050601f8311600181146143435760008415614331578287015190505b61433b85826142bd565b8655506143a3565b601f1984166143518661412d565b60005b8281101561437957848901518255600182019150602085019450602081019050614354565b868310156143965784890151614392601f89168261429f565b8355505b6001600288020188555050505b505050505050565b7f4552433732313a20696e76616c696420746f6b656e2049440000000000000000600082015250565b60006143e1601883613348565b91506143ec826143ab565b602082019050919050565b60006020820190508181036000830152614410816143d4565b9050919050565b7f4552433732313a2061646472657373207a65726f206973206e6f74206120766160008201527f6c6964206f776e65720000000000000000000000000000000000000000000000602082015250565b6000614473602983613348565b915061447e82614417565b604082019050919050565b600060208201905081810360008301526144a281614466565b9050919050565b60006144b4826133ef565b91506144bf836133ef565b92508282039050818111156144d7576144d66140ca565b5b92915050565b7f555249206e6f74206578697374206f6e20746861742049440000000000000000600082015250565b6000614513601883613348565b915061451e826144dd565b602082019050919050565b6000602082019050818103600083015261454281614506565b9050919050565b7f4e487b7100000000000000000000000000000000000000000000000000000000600052603260045260246000fd5b6000614583826133ef565b91507fffffffffffffffffffffffffffffffffffffffffffffffffffffffffffffffff82036145b5576145b46140ca565b5b600182019050919050565b7f4f776e61626c653a206e6577206f776e657220697320746865207a65726f206160008201527f6464726573730000000000000000000000000000000000000000000000000000602082015250565b600061461c602683613348565b9150614627826145c0565b604082019050919050565b6000602082019050818103600083015261464b8161460f565b9050919050565b7f4552433732313a207472616e736665722066726f6d20696e636f72726563742060008201527f6f776e6572000000000000000000000000000000000000000000000000000000602082015250565b60006146ae602583613348565b91506146b982614652565b604082019050919050565b600060208201905081810360008301526146dd816146a1565b9050919050565b7f4552433732313a207472616e7366657220746f20746865207a65726f2061646460008201527f7265737300000000000000000000000000000000000000000000000000000000602082015250565b6000614740602483613348565b915061474b826146e4565b604082019050919050565b6000602082019050818103600083015261476f81614733565b9050919050565b7f4552433732313a206d696e7420746f20746865207a65726f2061646472657373600082015250565b60006147ac602083613348565b91506147b782614776565b602082019050919050565b600060208201905081810360008301526147db8161479f565b9050919050565b7f4552433732313a20746f6b656e20616c7265616479206d696e74656400000000600082015250565b6000614818601c83613348565b9150614823826147e2565b602082019050919050565b600060208201905081810360008301526148478161480b565b9050919050565b7f4f776e61626c653a2063616c6c6572206973206e6f7420746865206f776e6572600082015250565b6000614884602083613348565b915061488f8261484e565b602082019050919050565b600060208201905081810360008301526148b381614877565b9050919050565b7f4552433732313a20617070726f766520746f2063616c6c657200000000000000600082015250565b60006148f0601983613348565b91506148fb826148ba565b602082019050919050565b6000602082019050818103600083015261491f816148e3565b9050919050565b7f4552433732313a207472616e7366657220746f206e6f6e20455243373231526560008201527f63656976657220696d706c656d656e7465720000000000000000000000000000602082015250565b6000614982603283613348565b915061498d82614926565b604082019050919050565b600060208201905081810360008301526149b181614975565b9050919050565b600081519050919050565b600082825260208201905092915050565b60006149df826149b8565b6149e981856149c3565b93506149f9818560208601613359565b614a0281613383565b840191505092915050565b6000608082019050614a226000830187613452565b614a2f6020830186613452565b614a3c6040830185613958565b8181036060830152614a4e81846149d4565b905095945050505050565b600081519050614a6881613255565b92915050565b600060208284031215614a8457614a8361321f565b5b6000614a9284828501614a59565b9150509291505056fea26469706673582212207814a6a67829b14dfbd932ca296829f9458a95d150faf1e4ad7366dfdc369f0a64736f6c63430008110033",
  "linkReferences": {},
  "deployedLinkReferences": {}
}