{
  "_format": "hh-sol-artifact-1",
  "contractName": "dConnect",
  "sourceName": "contracts/dConnect.sol",
  "abi": [
    {
      "inputs": [],
      "stateMutability": "nonpayable",
      "type": "constructor"
    },
    {
      "anonymous": false,
      "inputs": [
        {
          "indexed": true,
          "internalType": "address",
          "name": "owner",
          "type": "address"
        },
        {
          "indexed": true,
          "internalType": "address",
          "name": "approved",
          "type": "address"
        },
        {
          "indexed": true,
          "internalType": "uint256",
          "name": "tokenId",
          "type": "uint256"
        }
      ],
      "name": "Approval",
      "type": "event"
    },
    {
      "anonymous": false,
      "inputs": [
        {
          "indexed": true,
          "internalType": "address",
          "name": "owner",
          "type": "address"
        },
        {
          "indexed": true,
          "internalType": "address",
          "name": "operator",
          "type": "address"
        },
        {
          "indexed": false,
          "internalType": "bool",
          "name": "approved",
          "type": "bool"
        }
      ],
      "name": "ApprovalForAll",
      "type": "event"
    },
    {
      "anonymous": false,
      "inputs": [
        {
          "indexed": true,
          "internalType": "address",
          "name": "previousOwner",
          "type": "address"
        },
        {
          "indexed": true,
          "internalType": "address",
          "name": "newOwner",
          "type": "address"
        }
      ],
      "name": "OwnershipTransferred",
      "type": "event"
    },
    {
      "anonymous": false,
      "inputs": [
        {
          "indexed": true,
          "internalType": "address",
          "name": "from",
          "type": "address"
        },
        {
          "indexed": true,
          "internalType": "address",
          "name": "to",
          "type": "address"
        },
        {
          "indexed": true,
          "internalType": "uint256",
          "name": "tokenId",
          "type": "uint256"
        }
      ],
      "name": "Transfer",
      "type": "event"
    },
    {
      "inputs": [
        {
          "internalType": "address",
          "name": "to",
          "type": "address"
        },
        {
          "internalType": "uint256",
          "name": "tokenId",
          "type": "uint256"
        }
      ],
      "name": "approve",
      "outputs": [],
      "stateMutability": "nonpayable",
      "type": "function"
    },
    {
      "inputs": [
        {
          "internalType": "address",
          "name": "owner",
          "type": "address"
        }
      ],
      "name": "balanceOf",
      "outputs": [
        {
          "internalType": "uint256",
          "name": "",
          "type": "uint256"
        }
      ],
      "stateMutability": "view",
      "type": "function"
    },
    {
      "inputs": [
        {
          "internalType": "string",
          "name": "_name",
          "type": "string"
        },
        {
          "internalType": "address",
          "name": "_userAddress",
          "type": "address"
        }
      ],
      "name": "createUser",
      "outputs": [
        {
          "internalType": "bool",
          "name": "",
          "type": "bool"
        }
      ],
      "stateMutability": "nonpayable",
      "type": "function"
    },
    {
      "inputs": [
        {
          "internalType": "uint256",
          "name": "newId",
          "type": "uint256"
        }
      ],
      "name": "deletePost",
      "outputs": [
        {
          "internalType": "bool",
          "name": "",
          "type": "bool"
        }
      ],
      "stateMutability": "nonpayable",
      "type": "function"
    },
    {
      "inputs": [
        {
          "internalType": "address",
          "name": "self",
          "type": "address"
        },
        {
          "internalType": "uint256",
          "name": "_postId",
          "type": "uint256"
        }
      ],
      "name": "disLikePost",
      "outputs": [
        {
          "internalType": "bool",
          "name": "",
          "type": "bool"
        }
      ],
      "stateMutability": "nonpayable",
      "type": "function"
    },
    {
      "inputs": [
        {
          "internalType": "address",
          "name": "self",
          "type": "address"
        },
        {
          "internalType": "address",
          "name": "_followingAdd",
          "type": "address"
        }
      ],
      "name": "followUser",
      "outputs": [
        {
          "internalType": "bool",
          "name": "",
          "type": "bool"
        }
      ],
      "stateMutability": "nonpayable",
      "type": "function"
    },
    {
      "inputs": [
        {
          "internalType": "uint256",
          "name": "tokenId",
          "type": "uint256"
        }
      ],
      "name": "getApproved",
      "outputs": [
        {
          "internalType": "address",
          "name": "",
          "type": "address"
        }
      ],
      "stateMutability": "view",
      "type": "function"
    },
    {
      "inputs": [
        {
          "internalType": "uint256",
          "name": "postID",
          "type": "uint256"
        }
      ],
      "name": "getPost",
      "outputs": [
        {
          "components": [
            {
              "internalType": "uint256",
              "name": "id",
              "type": "uint256"
            },
            {
              "internalType": "address",
              "name": "owner",
              "type": "address"
            },
            {
              "internalType": "string",
              "name": "content",
              "type": "string"
            },
            {
              "internalType": "string",
              "name": "post_name",
              "type": "string"
            },
            {
              "internalType": "string",
              "name": "description",
              "type": "string"
            },
            {
              "internalType": "uint256",
              "name": "likesCount",
              "type": "uint256"
            },
            {
              "internalType": "bool",
              "name": "eXists",
              "type": "bool"
            },
            {
              "internalType": "uint256",
              "name": "timestamp",
              "type": "uint256"
            }
          ],
          "internalType": "struct dConnect.PostStruct",
          "name": "",
          "type": "tuple"
        }
      ],
      "stateMutability": "view",
      "type": "function"
    },
    {
      "inputs": [
        {
          "internalType": "address",
          "name": "_userAddress",
          "type": "address"
        }
      ],
      "name": "getUser",
      "outputs": [
        {
          "components": [
            {
              "internalType": "string",
              "name": "name",
              "type": "string"
            },
            {
              "internalType": "address",
              "name": "userAddress",
              "type": "address"
            },
            {
              "internalType": "string",
              "name": "profile_link",
              "type": "string"
            },
            {
              "internalType": "uint256[]",
              "name": "postIds",
              "type": "uint256[]"
            },
            {
              "internalType": "uint256[]",
              "name": "likeIds",
              "type": "uint256[]"
            },
            {
              "internalType": "uint256[]",
              "name": "dislikeIds",
              "type": "uint256[]"
            },
            {
              "internalType": "address[]",
              "name": "following",
              "type": "address[]"
            },
            {
              "internalType": "address[]",
              "name": "unfollowing",
              "type": "address[]"
            },
            {
              "internalType": "address[]",
              "name": "followers",
              "type": "address[]"
            },
            {
              "internalType": "address[]",
              "name": "unfollowers",
              "type": "address[]"
            }
          ],
          "internalType": "struct dConnect.UserStruct",
          "name": "",
          "type": "tuple"
        }
      ],
      "stateMutability": "view",
      "type": "function"
    },
    {
      "inputs": [
        {
          "internalType": "address",
          "name": "_userAddress",
          "type": "address"
        }
      ],
      "name": "getUserFollowers",
      "outputs": [
        {
          "internalType": "address[]",
          "name": "",
          "type": "address[]"
        }
      ],
      "stateMutability": "view",
      "type": "function"
    },
    {
      "inputs": [
        {
          "internalType": "address",
          "name": "_userAddress",
          "type": "address"
        }
      ],
      "name": "getUserFollowing",
      "outputs": [
        {
          "internalType": "address[]",
          "name": "",
          "type": "address[]"
        }
      ],
      "stateMutability": "view",
      "type": "function"
    },
    {
      "inputs": [
        {
          "internalType": "address",
          "name": "_userAddress",
          "type": "address"
        }
      ],
      "name": "getUserLikeIds",
      "outputs": [
        {
          "internalType": "uint256[]",
          "name": "",
          "type": "uint256[]"
        }
      ],
      "stateMutability": "view",
      "type": "function"
    },
    {
      "inputs": [
        {
          "internalType": "address",
          "name": "_userAddress",
          "type": "address"
        }
      ],
      "name": "getUserPostIds",
      "outputs": [
        {
          "internalType": "uint256[]",
          "name": "",
          "type": "uint256[]"
        }
      ],
      "stateMutability": "view",
      "type": "function"
    },
    {
      "inputs": [],
      "name": "getUsers",
      "outputs": [
        {
          "internalType": "address[]",
          "name": "",
          "type": "address[]"
        }
      ],
      "stateMutability": "view",
      "type": "function"
    },
    {
      "inputs": [
        {
          "internalType": "address",
          "name": "owner",
          "type": "address"
        },
        {
          "internalType": "address",
          "name": "operator",
          "type": "address"
        }
      ],
      "name": "isApprovedForAll",
      "outputs": [
        {
          "internalType": "bool",
          "name": "",
          "type": "bool"
        }
      ],
      "stateMutability": "view",
      "type": "function"
    },
    {
      "inputs": [
        {
          "internalType": "address",
          "name": "self",
          "type": "address"
        },
        {
          "internalType": "uint256",
          "name": "_postId",
          "type": "uint256"
        }
      ],
      "name": "likePost",
      "outputs": [
        {
          "internalType": "bool",
          "name": "",
          "type": "bool"
        }
      ],
      "stateMutability": "nonpayable",
      "type": "function"
    },
    {
      "inputs": [
        {
          "internalType": "address",
          "name": "_owner",
          "type": "address"
        },
        {
          "internalType": "string",
          "name": "_content",
          "type": "string"
        },
        {
          "internalType": "string",
          "name": "post_name",
          "type": "string"
        },
        {
          "internalType": "string",
          "name": "post_description",
          "type": "string"
        }
      ],
      "name": "mint",
      "outputs": [
        {
          "internalType": "uint256",
          "name": "",
          "type": "uint256"
        }
      ],
      "stateMutability": "nonpayable",
      "type": "function"
    },
    {
      "inputs": [],
      "name": "name",
      "outputs": [
        {
          "internalType": "string",
          "name": "",
          "type": "string"
        }
      ],
      "stateMutability": "view",
      "type": "function"
    },
    {
      "inputs": [],
      "name": "owner",
      "outputs": [
        {
          "internalType": "address",
          "name": "",
          "type": "address"
        }
      ],
      "stateMutability": "view",
      "type": "function"
    },
    {
      "inputs": [
        {
          "internalType": "uint256",
          "name": "tokenId",
          "type": "uint256"
        }
      ],
      "name": "ownerOf",
      "outputs": [
        {
          "internalType": "address",
          "name": "",
          "type": "address"
        }
      ],
      "stateMutability": "view",
      "type": "function"
    },
    {
      "inputs": [],
      "name": "renounceOwnership",
      "outputs": [],
      "stateMutability": "nonpayable",
      "type": "function"
    },
    {
      "inputs": [
        {
          "internalType": "address",
          "name": "from",
          "type": "address"
        },
        {
          "internalType": "address",
          "name": "to",
          "type": "address"
        },
        {
          "internalType": "uint256",
          "name": "tokenId",
          "type": "uint256"
        }
      ],
      "name": "safeTransferFrom",
      "outputs": [],
      "stateMutability": "nonpayable",
      "type": "function"
    },
    {
      "inputs": [
        {
          "internalType": "address",
          "name": "from",
          "type": "address"
        },
        {
          "internalType": "address",
          "name": "to",
          "type": "address"
        },
        {
          "internalType": "uint256",
          "name": "tokenId",
          "type": "uint256"
        },
        {
          "internalType": "bytes",
          "name": "data",
          "type": "bytes"
        }
      ],
      "name": "safeTransferFrom",
      "outputs": [],
      "stateMutability": "nonpayable",
      "type": "function"
    },
    {
      "inputs": [
        {
          "internalType": "address",
          "name": "operator",
          "type": "address"
        },
        {
          "internalType": "bool",
          "name": "approved",
          "type": "bool"
        }
      ],
      "name": "setApprovalForAll",
      "outputs": [],
      "stateMutability": "nonpayable",
      "type": "function"
    },
    {
      "inputs": [
        {
          "internalType": "address",
          "name": "self",
          "type": "address"
        },
        {
          "internalType": "string",
          "name": "url",
          "type": "string"
        }
      ],
      "name": "setProfile",
      "outputs": [
        {
          "internalType": "bool",
          "name": "",
          "type": "bool"
        }
      ],
      "stateMutability": "nonpayable",
      "type": "function"
    },
    {
      "inputs": [
        {
          "internalType": "bytes4",
          "name": "interfaceId",
          "type": "bytes4"
        }
      ],
      "name": "supportsInterface",
      "outputs": [
        {
          "internalType": "bool",
          "name": "",
          "type": "bool"
        }
      ],
      "stateMutability": "view",
      "type": "function"
    },
    {
      "inputs": [],
      "name": "symbol",
      "outputs": [
        {
          "internalType": "string",
          "name": "",
          "type": "string"
        }
      ],
      "stateMutability": "view",
      "type": "function"
    },
    {
      "inputs": [
        {
          "internalType": "uint256",
          "name": "tokenId",
          "type": "uint256"
        }
      ],
      "name": "tokenURI",
      "outputs": [
        {
          "internalType": "string",
          "name": "",
          "type": "string"
        }
      ],
      "stateMutability": "view",
      "type": "function"
    },
    {
      "inputs": [
        {
          "internalType": "address",
          "name": "from",
          "type": "address"
        },
        {
          "internalType": "address",
          "name": "to",
          "type": "address"
        },
        {
          "internalType": "uint256",
          "name": "tokenId",
          "type": "uint256"
        }
      ],
      "name": "transferFrom",
      "outputs": [],
      "stateMutability": "nonpayable",
      "type": "function"
    },
    {
      "inputs": [
        {
          "internalType": "address",
          "name": "newOwner",
          "type": "address"
        }
      ],
      "name": "transferOwnership",
      "outputs": [],
      "stateMutability": "nonpayable",
      "type": "function"
    },
    {
      "inputs": [
        {
          "internalType": "address",
          "name": "self",
          "type": "address"
        },
        {
          "internalType": "address",
          "name": "_followingRem",
          "type": "address"
        }
      ],
      "name": "unfollowUser",
      "outputs": [
        {
          "internalType": "bool",
          "name": "",
          "type": "bool"
        }
      ],
      "stateMutability": "nonpayable",
      "type": "function"
    }
  ],
  "bytecode": "0x60806040523480156200001157600080fd5b506040518060400160405280600881526020017f64436f6e6e6563740000000000000000000000000000000000000000000000008152506040518060400160405280600381526020017f444354000000000000000000000000000000000000000000000000000000000081525081600090816200008f919062000412565b508060019081620000a1919062000412565b505050620000c4620000b8620000ca60201b60201c565b620000d260201b60201c565b620004f9565b600033905090565b6000600660009054906101000a900473ffffffffffffffffffffffffffffffffffffffff16905081600660006101000a81548173ffffffffffffffffffffffffffffffffffffffff021916908373ffffffffffffffffffffffffffffffffffffffff1602179055508173ffffffffffffffffffffffffffffffffffffffff168173ffffffffffffffffffffffffffffffffffffffff167f8be0079c531659141344cd1fd0a4f28419497f9722a3daafe3b4186f6b6457e060405160405180910390a35050565b600081519050919050565b7f4e487b7100000000000000000000000000000000000000000000000000000000600052604160045260246000fd5b7f4e487b7100000000000000000000000000000000000000000000000000000000600052602260045260246000fd5b600060028204905060018216806200021a57607f821691505b60208210810362000230576200022f620001d2565b5b50919050565b60008190508160005260206000209050919050565b60006020601f8301049050919050565b600082821b905092915050565b6000600883026200029a7fffffffffffffffffffffffffffffffffffffffffffffffffffffffffffffffff826200025b565b620002a686836200025b565b95508019841693508086168417925050509392505050565b6000819050919050565b6000819050919050565b6000620002f3620002ed620002e784620002be565b620002c8565b620002be565b9050919050565b6000819050919050565b6200030f83620002d2565b620003276200031e82620002fa565b84845462000268565b825550505050565b600090565b6200033e6200032f565b6200034b81848462000304565b505050565b5b8181101562000373576200036760008262000334565b60018101905062000351565b5050565b601f821115620003c2576200038c8162000236565b62000397846200024b565b81016020851015620003a7578190505b620003bf620003b6856200024b565b83018262000350565b50505b505050565b600082821c905092915050565b6000620003e760001984600802620003c7565b1980831691505092915050565b6000620004028383620003d4565b9150826002028217905092915050565b6200041d8262000198565b67ffffffffffffffff811115620004395762000438620001a3565b5b62000445825462000201565b6200045282828562000377565b600060209050601f8311600181146200048a576000841562000475578287015190505b620004818582620003f4565b865550620004f1565b601f1984166200049a8662000236565b60005b82811015620004c4578489015182556001820191506020850194506020810190506200049d565b86831015620004e45784890151620004e0601f891682620003d4565b8355505b6001600288020188555050505b505050505050565b61475280620005096000396000f3fe608060405234801561001057600080fd5b50600436106101e45760003560e01c8063598e62b01161010f578063a22cb465116100a2578063e985e9c511610071578063e985e9c514610627578063f2b6056214610657578063f2fde38b14610687578063f555ffb4146106a3576101e4565b8063a22cb4651461058f578063b88d4fde146105ab578063c87b56dd146105c7578063d0b920af146105f7576101e4565b8063715018a6116100de578063715018a6146105195780638da5cb5b1461052357806395d89b41146105415780639b7e1a751461055f576101e4565b8063598e62b0146104595780636352211e146104895780636f77926b146104b957806370a08231146104e9576101e4565b80630c8273e61161018757806340731c241161015657806340731c24146103ad57806342842e0e146103dd57806348351529146103f95780634a0706be14610429576101e4565b80630c8273e61461030157806319e771681461033157806323b872dd1461036157806326853c9b1461037d576101e4565b806306fdde03116101c357806306fdde0314610267578063081812fc14610285578063094cd5ee146102b5578063095ea7b3146102e5576101e4565b8062ce8e3e146101e957806301ffc9a714610207578063030f8f9e14610237575b600080fd5b6101f16106d3565b6040516101fe9190612fc3565b60405180910390f35b610221600480360381019061021c9190613051565b610761565b60405161022e9190613099565b60405180910390f35b610251600480360381019061024c91906130e0565b610843565b60405161025e9190612fc3565b60405180910390f35b61026f610913565b60405161027c919061319d565b60405180910390f35b61029f600480360381019061029a91906131f5565b6109a5565b6040516102ac9190613231565b60405180910390f35b6102cf60048036038101906102ca91906131f5565b6109eb565b6040516102dc9190613099565b60405180910390f35b6102ff60048036038101906102fa919061324c565b610a24565b005b61031b6004803603810190610316919061328c565b610b3b565b6040516103289190613099565b60405180910390f35b61034b600480360381019061034691906130e0565b610c8d565b604051610358919061338a565b60405180910390f35b61037b600480360381019061037691906133ac565b610d27565b005b610397600480360381019061039291906130e0565b610d87565b6040516103a49190612fc3565b60405180910390f35b6103c760048036038101906103c291906131f5565b610e57565b6040516103d49190613516565b60405180910390f35b6103f760048036038101906103f291906133ac565b6110ca565b005b610413600480360381019061040e919061324c565b6110ea565b6040516104209190613099565b60405180910390f35b610443600480360381019061043e919061366d565b61119c565b6040516104509190613737565b60405180910390f35b610473600480360381019061046e9190613752565b611386565b6040516104809190613099565b60405180910390f35b6104a3600480360381019061049e91906131f5565b6113e2565b6040516104b09190613231565b60405180910390f35b6104d360048036038101906104ce91906130e0565b611468565b6040516104e0919061399e565b60405180910390f35b61050360048036038101906104fe91906130e0565b61197c565b6040516105109190613737565b60405180910390f35b610521611a33565b005b61052b611a47565b6040516105389190613231565b60405180910390f35b610549611a71565b604051610556919061319d565b60405180910390f35b6105796004803603810190610574919061324c565b611b03565b6040516105869190613099565b60405180910390f35b6105a960048036038101906105a491906139ec565b611bb5565b005b6105c560048036038101906105c09190613acd565b611bcb565b005b6105e160048036038101906105dc91906131f5565b611c2d565b6040516105ee919061319d565b60405180910390f35b610611600480360381019061060c91906130e0565b611d20565b60405161061e919061338a565b60405180910390f35b610641600480360381019061063c919061328c565b611dba565b60405161064e9190613099565b60405180910390f35b610671600480360381019061066c919061328c565b611e4e565b60405161067e9190613099565b60405180910390f35b6106a1600480360381019061069c91906130e0565b611fa0565b005b6106bd60048036038101906106b89190613b50565b612023565b6040516106ca9190613099565b60405180910390f35b6060600880548060200260200160405190810160405280929190818152602001828054801561075757602002820191906000526020600020905b8160009054906101000a900473ffffffffffffffffffffffffffffffffffffffff1673ffffffffffffffffffffffffffffffffffffffff168152602001906001019080831161070d575b5050505050905090565b60007f80ac58cd000000000000000000000000000000000000000000000000000000007bffffffffffffffffffffffffffffffffffffffffffffffffffffffff1916827bffffffffffffffffffffffffffffffffffffffffffffffffffffffff1916148061082c57507f5b5e139f000000000000000000000000000000000000000000000000000000007bffffffffffffffffffffffffffffffffffffffffffffffffffffffff1916827bffffffffffffffffffffffffffffffffffffffffffffffffffffffff1916145b8061083c575061083b82612163565b5b9050919050565b6060600760008373ffffffffffffffffffffffffffffffffffffffff1673ffffffffffffffffffffffffffffffffffffffff16815260200190815260200160002060060180548060200260200160405190810160405280929190818152602001828054801561090757602002820191906000526020600020905b8160009054906101000a900473ffffffffffffffffffffffffffffffffffffffff1673ffffffffffffffffffffffffffffffffffffffff16815260200190600101908083116108bd575b50505050509050919050565b60606000805461092290613bdb565b80601f016020809104026020016040519081016040528092919081815260200182805461094e90613bdb565b801561099b5780601f106109705761010080835404028352916020019161099b565b820191906000526020600020905b81548152906001019060200180831161097e57829003601f168201915b5050505050905090565b60006109b0826121cd565b6004600083815260200190815260200160002060009054906101000a900473ffffffffffffffffffffffffffffffffffffffff169050919050565b6000806009600084815260200190815260200160002060060160006101000a81548160ff02191690831515021790555060019050919050565b6000610a2f826113e2565b90508073ffffffffffffffffffffffffffffffffffffffff168373ffffffffffffffffffffffffffffffffffffffff1603610a9f576040517f08c379a0000000000000000000000000000000000000000000000000000000008152600401610a9690613c7e565b60405180910390fd5b8073ffffffffffffffffffffffffffffffffffffffff16610abe612218565b73ffffffffffffffffffffffffffffffffffffffff161480610aed5750610aec81610ae7612218565b611dba565b5b610b2c576040517f08c379a0000000000000000000000000000000000000000000000000000000008152600401610b2390613d10565b60405180910390fd5b610b368383612220565b505050565b6000600760008473ffffffffffffffffffffffffffffffffffffffff1673ffffffffffffffffffffffffffffffffffffffff168152602001908152602001600020600601829080600181540180825580915050600190039060005260206000200160009091909190916101000a81548173ffffffffffffffffffffffffffffffffffffffff021916908373ffffffffffffffffffffffffffffffffffffffff160217905550600760008373ffffffffffffffffffffffffffffffffffffffff1673ffffffffffffffffffffffffffffffffffffffff168152602001908152602001600020600801839080600181540180825580915050600190039060005260206000200160009091909190916101000a81548173ffffffffffffffffffffffffffffffffffffffff021916908373ffffffffffffffffffffffffffffffffffffffff1602179055506001905092915050565b6060600760008373ffffffffffffffffffffffffffffffffffffffff1673ffffffffffffffffffffffffffffffffffffffff168152602001908152602001600020600301805480602002602001604051908101604052809291908181526020018280548015610d1b57602002820191906000526020600020905b815481526020019060010190808311610d07575b50505050509050919050565b610d38610d32612218565b826122d9565b610d77576040517f08c379a0000000000000000000000000000000000000000000000000000000008152600401610d6e90613da2565b60405180910390fd5b610d8283838361236e565b505050565b6060600760008373ffffffffffffffffffffffffffffffffffffffff1673ffffffffffffffffffffffffffffffffffffffff168152602001908152602001600020600801805480602002602001604051908101604052809291908181526020018280548015610e4b57602002820191906000526020600020905b8160009054906101000a900473ffffffffffffffffffffffffffffffffffffffff1673ffffffffffffffffffffffffffffffffffffffff1681526020019060010190808311610e01575b50505050509050919050565b610e5f612e0d565b6009600083815260200190815260200160002060405180610100016040529081600082015481526020016001820160009054906101000a900473ffffffffffffffffffffffffffffffffffffffff1673ffffffffffffffffffffffffffffffffffffffff1673ffffffffffffffffffffffffffffffffffffffff168152602001600282018054610eee90613bdb565b80601f0160208091040260200160405190810160405280929190818152602001828054610f1a90613bdb565b8015610f675780601f10610f3c57610100808354040283529160200191610f67565b820191906000526020600020905b815481529060010190602001808311610f4a57829003601f168201915b50505050508152602001600382018054610f8090613bdb565b80601f0160208091040260200160405190810160405280929190818152602001828054610fac90613bdb565b8015610ff95780601f10610fce57610100808354040283529160200191610ff9565b820191906000526020600020905b815481529060010190602001808311610fdc57829003601f168201915b5050505050815260200160048201805461101290613bdb565b80601f016020809104026020016040519081016040528092919081815260200182805461103e90613bdb565b801561108b5780601f106110605761010080835404028352916020019161108b565b820191906000526020600020905b81548152906001019060200180831161106e57829003601f168201915b50505050508152602001600582015481526020016006820160009054906101000a900460ff161515151581526020016007820154815250509050919050565b6110e583838360405180602001604052806000815250611bcb565b505050565b6000600760008473ffffffffffffffffffffffffffffffffffffffff1673ffffffffffffffffffffffffffffffffffffffff168152602001908152602001600020600401829080600181540180825580915050600190039060005260206000200160009091909190915055600160096000848152602001908152602001600020600501546111789190613df1565b60096000848152602001908152602001600020600501819055506001905092915050565b6000806111a9600a612667565b90506111b58682612675565b6111bf8186612892565b6000429050816009600084815260200190815260200160002060000181905550866009600084815260200190815260200160002060010160006101000a81548173ffffffffffffffffffffffffffffffffffffffff021916908373ffffffffffffffffffffffffffffffffffffffff160217905550856009600084815260200190815260200160002060020190816112579190613fd1565b508460096000848152602001908152602001600020600301908161127b9190613fd1565b508360096000848152602001908152602001600020600401908161129f9190613fd1565b506000600960008481526020019081526020016000206005018190555060016009600084815260200190815260200160002060060160006101000a81548160ff021916908315150217905550806009600084815260200190815260200160002060070181905550600760008873ffffffffffffffffffffffffffffffffffffffff1673ffffffffffffffffffffffffffffffffffffffff168152602001908152602001600020600301829080600181540180825580915050600190039060005260206000200160009091909190915055611379600a6128b7565b8192505050949350505050565b600081600760008573ffffffffffffffffffffffffffffffffffffffff1673ffffffffffffffffffffffffffffffffffffffff16815260200190815260200160002060020190816113d79190613fd1565b506001905092915050565b6000806113ee836128cd565b9050600073ffffffffffffffffffffffffffffffffffffffff168173ffffffffffffffffffffffffffffffffffffffff160361145f576040517f08c379a0000000000000000000000000000000000000000000000000000000008152600401611456906140ef565b60405180910390fd5b80915050919050565b611470612e6a565b600760008373ffffffffffffffffffffffffffffffffffffffff1673ffffffffffffffffffffffffffffffffffffffff168152602001908152602001600020604051806101400160405290816000820180546114cb90613bdb565b80601f01602080910402602001604051908101604052809291908181526020018280546114f790613bdb565b80156115445780601f1061151957610100808354040283529160200191611544565b820191906000526020600020905b81548152906001019060200180831161152757829003601f168201915b505050505081526020016001820160009054906101000a900473ffffffffffffffffffffffffffffffffffffffff1673ffffffffffffffffffffffffffffffffffffffff1673ffffffffffffffffffffffffffffffffffffffff1681526020016002820180546115b390613bdb565b80601f01602080910402602001604051908101604052809291908181526020018280546115df90613bdb565b801561162c5780601f106116015761010080835404028352916020019161162c565b820191906000526020600020905b81548152906001019060200180831161160f57829003601f168201915b505050505081526020016003820180548060200260200160405190810160405280929190818152602001828054801561168457602002820191906000526020600020905b815481526020019060010190808311611670575b50505050508152602001600482018054806020026020016040519081016040528092919081815260200182805480156116dc57602002820191906000526020600020905b8154815260200190600101908083116116c8575b505050505081526020016005820180548060200260200160405190810160405280929190818152602001828054801561173457602002820191906000526020600020905b815481526020019060010190808311611720575b50505050508152602001600682018054806020026020016040519081016040528092919081815260200182805480156117c257602002820191906000526020600020905b8160009054906101000a900473ffffffffffffffffffffffffffffffffffffffff1673ffffffffffffffffffffffffffffffffffffffff1681526020019060010190808311611778575b505050505081526020016007820180548060200260200160405190810160405280929190818152602001828054801561185057602002820191906000526020600020905b8160009054906101000a900473ffffffffffffffffffffffffffffffffffffffff1673ffffffffffffffffffffffffffffffffffffffff1681526020019060010190808311611806575b50505050508152602001600882018054806020026020016040519081016040528092919081815260200182805480156118de57602002820191906000526020600020905b8160009054906101000a900473ffffffffffffffffffffffffffffffffffffffff1673ffffffffffffffffffffffffffffffffffffffff1681526020019060010190808311611894575b505050505081526020016009820180548060200260200160405190810160405280929190818152602001828054801561196c57602002820191906000526020600020905b8160009054906101000a900473ffffffffffffffffffffffffffffffffffffffff1673ffffffffffffffffffffffffffffffffffffffff1681526020019060010190808311611922575b5050505050815250509050919050565b60008073ffffffffffffffffffffffffffffffffffffffff168273ffffffffffffffffffffffffffffffffffffffff16036119ec576040517f08c379a00000000000000000000000000000000000000000000000000000000081526004016119e390614181565b60405180910390fd5b600360008373ffffffffffffffffffffffffffffffffffffffff1673ffffffffffffffffffffffffffffffffffffffff168152602001908152602001600020549050919050565b611a3b61290a565b611a456000612988565b565b6000600660009054906101000a900473ffffffffffffffffffffffffffffffffffffffff16905090565b606060018054611a8090613bdb565b80601f0160208091040260200160405190810160405280929190818152602001828054611aac90613bdb565b8015611af95780601f10611ace57610100808354040283529160200191611af9565b820191906000526020600020905b815481529060010190602001808311611adc57829003601f168201915b5050505050905090565b6000600760008473ffffffffffffffffffffffffffffffffffffffff1673ffffffffffffffffffffffffffffffffffffffff16815260200190815260200160002060050182908060018154018082558091505060019003906000526020600020016000909190919091505560016009600084815260200190815260200160002060050154611b9191906141a1565b60096000848152602001908152602001600020600501819055506001905092915050565b611bc7611bc0612218565b8383612a4e565b5050565b611bdc611bd6612218565b836122d9565b611c1b576040517f08c379a0000000000000000000000000000000000000000000000000000000008152600401611c1290613da2565b60405180910390fd5b611c2784848484612bba565b50505050565b6060611c3882612c16565b611c77576040517f08c379a0000000000000000000000000000000000000000000000000000000008152600401611c6e90614221565b60405180910390fd5b6000600b60008481526020019081526020016000208054611c9790613bdb565b80601f0160208091040260200160405190810160405280929190818152602001828054611cc390613bdb565b8015611d105780601f10611ce557610100808354040283529160200191611d10565b820191906000526020600020905b815481529060010190602001808311611cf357829003601f168201915b5050505050905080915050919050565b6060600760008373ffffffffffffffffffffffffffffffffffffffff1673ffffffffffffffffffffffffffffffffffffffff168152602001908152602001600020600401805480602002602001604051908101604052809291908181526020018280548015611dae57602002820191906000526020600020905b815481526020019060010190808311611d9a575b50505050509050919050565b6000600560008473ffffffffffffffffffffffffffffffffffffffff1673ffffffffffffffffffffffffffffffffffffffff16815260200190815260200160002060008373ffffffffffffffffffffffffffffffffffffffff1673ffffffffffffffffffffffffffffffffffffffff16815260200190815260200160002060009054906101000a900460ff16905092915050565b6000600760008473ffffffffffffffffffffffffffffffffffffffff1673ffffffffffffffffffffffffffffffffffffffff168152602001908152602001600020600701829080600181540180825580915050600190039060005260206000200160009091909190916101000a81548173ffffffffffffffffffffffffffffffffffffffff021916908373ffffffffffffffffffffffffffffffffffffffff160217905550600760008373ffffffffffffffffffffffffffffffffffffffff1673ffffffffffffffffffffffffffffffffffffffff168152602001908152602001600020600901839080600181540180825580915050600190039060005260206000200160009091909190916101000a81548173ffffffffffffffffffffffffffffffffffffffff021916908373ffffffffffffffffffffffffffffffffffffffff1602179055506001905092915050565b611fa861290a565b600073ffffffffffffffffffffffffffffffffffffffff168173ffffffffffffffffffffffffffffffffffffffff1603612017576040517f08c379a000000000000000000000000000000000000000000000000000000000815260040161200e906142b3565b60405180910390fd5b61202081612988565b50565b600082600760008473ffffffffffffffffffffffffffffffffffffffff1673ffffffffffffffffffffffffffffffffffffffff16815260200190815260200160002060000190816120749190613fd1565b5081600760008473ffffffffffffffffffffffffffffffffffffffff1673ffffffffffffffffffffffffffffffffffffffff16815260200190815260200160002060010160006101000a81548173ffffffffffffffffffffffffffffffffffffffff021916908373ffffffffffffffffffffffffffffffffffffffff1602179055506008829080600181540180825580915050600190039060005260206000200160009091909190916101000a81548173ffffffffffffffffffffffffffffffffffffffff021916908373ffffffffffffffffffffffffffffffffffffffff1602179055506001905092915050565b60007f01ffc9a7000000000000000000000000000000000000000000000000000000007bffffffffffffffffffffffffffffffffffffffffffffffffffffffff1916827bffffffffffffffffffffffffffffffffffffffffffffffffffffffff1916149050919050565b6121d681612c16565b612215576040517f08c379a000000000000000000000000000000000000000000000000000000000815260040161220c906140ef565b60405180910390fd5b50565b600033905090565b816004600083815260200190815260200160002060006101000a81548173ffffffffffffffffffffffffffffffffffffffff021916908373ffffffffffffffffffffffffffffffffffffffff160217905550808273ffffffffffffffffffffffffffffffffffffffff16612293836113e2565b73ffffffffffffffffffffffffffffffffffffffff167f8c5be1e5ebec7d5bd14f71427d1e84f3dd0314c0f7b2291e5b200ac8c7c3b92560405160405180910390a45050565b6000806122e5836113e2565b90508073ffffffffffffffffffffffffffffffffffffffff168473ffffffffffffffffffffffffffffffffffffffff16148061232757506123268185611dba565b5b8061236557508373ffffffffffffffffffffffffffffffffffffffff1661234d846109a5565b73ffffffffffffffffffffffffffffffffffffffff16145b91505092915050565b8273ffffffffffffffffffffffffffffffffffffffff1661238e826113e2565b73ffffffffffffffffffffffffffffffffffffffff16146123e4576040517f08c379a00000000000000000000000000000000000000000000000000000000081526004016123db90614345565b60405180910390fd5b600073ffffffffffffffffffffffffffffffffffffffff168273ffffffffffffffffffffffffffffffffffffffff1603612453576040517f08c379a000000000000000000000000000000000000000000000000000000000815260040161244a906143d7565b60405180910390fd5b6124608383836001612c57565b8273ffffffffffffffffffffffffffffffffffffffff16612480826113e2565b73ffffffffffffffffffffffffffffffffffffffff16146124d6576040517f08c379a00000000000000000000000000000000000000000000000000000000081526004016124cd90614345565b60405180910390fd5b6004600082815260200190815260200160002060006101000a81549073ffffffffffffffffffffffffffffffffffffffff02191690556001600360008573ffffffffffffffffffffffffffffffffffffffff1673ffffffffffffffffffffffffffffffffffffffff168152602001908152602001600020600082825403925050819055506001600360008473ffffffffffffffffffffffffffffffffffffffff1673ffffffffffffffffffffffffffffffffffffffff16815260200190815260200160002060008282540192505081905550816002600083815260200190815260200160002060006101000a81548173ffffffffffffffffffffffffffffffffffffffff021916908373ffffffffffffffffffffffffffffffffffffffff160217905550808273ffffffffffffffffffffffffffffffffffffffff168473ffffffffffffffffffffffffffffffffffffffff167fddf252ad1be2c89b69c2b068fc378daa952ba7f163c4a11628f55a4df523b3ef60405160405180910390a46126628383836001612c5d565b505050565b600081600001549050919050565b600073ffffffffffffffffffffffffffffffffffffffff168273ffffffffffffffffffffffffffffffffffffffff16036126e4576040517f08c379a00000000000000000000000000000000000000000000000000000000081526004016126db90614443565b60405180910390fd5b6126ed81612c16565b1561272d576040517f08c379a0000000000000000000000000000000000000000000000000000000008152600401612724906144af565b60405180910390fd5b61273b600083836001612c57565b61274481612c16565b15612784576040517f08c379a000000000000000000000000000000000000000000000000000000000815260040161277b906144af565b60405180910390fd5b6001600360008473ffffffffffffffffffffffffffffffffffffffff1673ffffffffffffffffffffffffffffffffffffffff16815260200190815260200160002060008282540192505081905550816002600083815260200190815260200160002060006101000a81548173ffffffffffffffffffffffffffffffffffffffff021916908373ffffffffffffffffffffffffffffffffffffffff160217905550808273ffffffffffffffffffffffffffffffffffffffff16600073ffffffffffffffffffffffffffffffffffffffff167fddf252ad1be2c89b69c2b068fc378daa952ba7f163c4a11628f55a4df523b3ef60405160405180910390a461288e600083836001612c5d565b5050565b80600b600084815260200190815260200160002090816128b29190613fd1565b505050565b6001816000016000828254019250508190555050565b60006002600083815260200190815260200160002060009054906101000a900473ffffffffffffffffffffffffffffffffffffffff169050919050565b612912612218565b73ffffffffffffffffffffffffffffffffffffffff16612930611a47565b73ffffffffffffffffffffffffffffffffffffffff1614612986576040517f08c379a000000000000000000000000000000000000000000000000000000000815260040161297d9061451b565b60405180910390fd5b565b6000600660009054906101000a900473ffffffffffffffffffffffffffffffffffffffff16905081600660006101000a81548173ffffffffffffffffffffffffffffffffffffffff021916908373ffffffffffffffffffffffffffffffffffffffff1602179055508173ffffffffffffffffffffffffffffffffffffffff168173ffffffffffffffffffffffffffffffffffffffff167f8be0079c531659141344cd1fd0a4f28419497f9722a3daafe3b4186f6b6457e060405160405180910390a35050565b8173ffffffffffffffffffffffffffffffffffffffff168373ffffffffffffffffffffffffffffffffffffffff1603612abc576040517f08c379a0000000000000000000000000000000000000000000000000000000008152600401612ab390614587565b60405180910390fd5b80600560008573ffffffffffffffffffffffffffffffffffffffff1673ffffffffffffffffffffffffffffffffffffffff16815260200190815260200160002060008473ffffffffffffffffffffffffffffffffffffffff1673ffffffffffffffffffffffffffffffffffffffff16815260200190815260200160002060006101000a81548160ff0219169083151502179055508173ffffffffffffffffffffffffffffffffffffffff168373ffffffffffffffffffffffffffffffffffffffff167f17307eab39ab6107e8899845ad3d59bd9653f200f220920489ca2b5937696c3183604051612bad9190613099565b60405180910390a3505050565b612bc584848461236e565b612bd184848484612c63565b612c10576040517f08c379a0000000000000000000000000000000000000000000000000000000008152600401612c0790614619565b60405180910390fd5b50505050565b60008073ffffffffffffffffffffffffffffffffffffffff16612c38836128cd565b73ffffffffffffffffffffffffffffffffffffffff1614159050919050565b50505050565b50505050565b6000612c848473ffffffffffffffffffffffffffffffffffffffff16612dea565b15612ddd578373ffffffffffffffffffffffffffffffffffffffff1663150b7a02612cad612218565b8786866040518563ffffffff1660e01b8152600401612ccf949392919061468e565b6020604051808303816000875af1925050508015612d0b57506040513d601f19601f82011682018060405250810190612d0891906146ef565b60015b612d8d573d8060008114612d3b576040519150601f19603f3d011682016040523d82523d6000602084013e612d40565b606091505b506000815103612d85576040517f08c379a0000000000000000000000000000000000000000000000000000000008152600401612d7c90614619565b60405180910390fd5b805181602001fd5b63150b7a0260e01b7bffffffffffffffffffffffffffffffffffffffffffffffffffffffff1916817bffffffffffffffffffffffffffffffffffffffffffffffffffffffff191614915050612de2565b600190505b949350505050565b6000808273ffffffffffffffffffffffffffffffffffffffff163b119050919050565b60405180610100016040528060008152602001600073ffffffffffffffffffffffffffffffffffffffff16815260200160608152602001606081526020016060815260200160008152602001600015158152602001600081525090565b60405180610140016040528060608152602001600073ffffffffffffffffffffffffffffffffffffffff16815260200160608152602001606081526020016060815260200160608152602001606081526020016060815260200160608152602001606081525090565b600081519050919050565b600082825260208201905092915050565b6000819050602082019050919050565b600073ffffffffffffffffffffffffffffffffffffffff82169050919050565b6000612f2a82612eff565b9050919050565b612f3a81612f1f565b82525050565b6000612f4c8383612f31565b60208301905092915050565b6000602082019050919050565b6000612f7082612ed3565b612f7a8185612ede565b9350612f8583612eef565b8060005b83811015612fb6578151612f9d8882612f40565b9750612fa883612f58565b925050600181019050612f89565b5085935050505092915050565b60006020820190508181036000830152612fdd8184612f65565b905092915050565b6000604051905090565b600080fd5b600080fd5b60007fffffffff0000000000000000000000000000000000000000000000000000000082169050919050565b61302e81612ff9565b811461303957600080fd5b50565b60008135905061304b81613025565b92915050565b60006020828403121561306757613066612fef565b5b60006130758482850161303c565b91505092915050565b60008115159050919050565b6130938161307e565b82525050565b60006020820190506130ae600083018461308a565b92915050565b6130bd81612f1f565b81146130c857600080fd5b50565b6000813590506130da816130b4565b92915050565b6000602082840312156130f6576130f5612fef565b5b6000613104848285016130cb565b91505092915050565b600081519050919050565b600082825260208201905092915050565b60005b8381101561314757808201518184015260208101905061312c565b60008484015250505050565b6000601f19601f8301169050919050565b600061316f8261310d565b6131798185613118565b9350613189818560208601613129565b61319281613153565b840191505092915050565b600060208201905081810360008301526131b78184613164565b905092915050565b6000819050919050565b6131d2816131bf565b81146131dd57600080fd5b50565b6000813590506131ef816131c9565b92915050565b60006020828403121561320b5761320a612fef565b5b6000613219848285016131e0565b91505092915050565b61322b81612f1f565b82525050565b60006020820190506132466000830184613222565b92915050565b6000806040838503121561326357613262612fef565b5b6000613271858286016130cb565b9250506020613282858286016131e0565b9150509250929050565b600080604083850312156132a3576132a2612fef565b5b60006132b1858286016130cb565b92505060206132c2858286016130cb565b9150509250929050565b600081519050919050565b600082825260208201905092915050565b6000819050602082019050919050565b613301816131bf565b82525050565b600061331383836132f8565b60208301905092915050565b6000602082019050919050565b6000613337826132cc565b61334181856132d7565b935061334c836132e8565b8060005b8381101561337d5781516133648882613307565b975061336f8361331f565b925050600181019050613350565b5085935050505092915050565b600060208201905081810360008301526133a4818461332c565b905092915050565b6000806000606084860312156133c5576133c4612fef565b5b60006133d3868287016130cb565b93505060206133e4868287016130cb565b92505060406133f5868287016131e0565b9150509250925092565b600082825260208201905092915050565b600061341b8261310d565b61342581856133ff565b9350613435818560208601613129565b61343e81613153565b840191505092915050565b6134528161307e565b82525050565b60006101008301600083015161347160008601826132f8565b5060208301516134846020860182612f31565b506040830151848203604086015261349c8282613410565b915050606083015184820360608601526134b68282613410565b915050608083015184820360808601526134d08282613410565b91505060a08301516134e560a08601826132f8565b5060c08301516134f860c0860182613449565b5060e083015161350b60e08601826132f8565b508091505092915050565b600060208201905081810360008301526135308184613458565b905092915050565b600080fd5b600080fd5b7f4e487b7100000000000000000000000000000000000000000000000000000000600052604160045260246000fd5b61357a82613153565b810181811067ffffffffffffffff8211171561359957613598613542565b5b80604052505050565b60006135ac612fe5565b90506135b88282613571565b919050565b600067ffffffffffffffff8211156135d8576135d7613542565b5b6135e182613153565b9050602081019050919050565b82818337600083830152505050565b600061361061360b846135bd565b6135a2565b90508281526020810184848401111561362c5761362b61353d565b5b6136378482856135ee565b509392505050565b600082601f83011261365457613653613538565b5b81356136648482602086016135fd565b91505092915050565b6000806000806080858703121561368757613686612fef565b5b6000613695878288016130cb565b945050602085013567ffffffffffffffff8111156136b6576136b5612ff4565b5b6136c28782880161363f565b935050604085013567ffffffffffffffff8111156136e3576136e2612ff4565b5b6136ef8782880161363f565b925050606085013567ffffffffffffffff8111156137105761370f612ff4565b5b61371c8782880161363f565b91505092959194509250565b613731816131bf565b82525050565b600060208201905061374c6000830184613728565b92915050565b6000806040838503121561376957613768612fef565b5b6000613777858286016130cb565b925050602083013567ffffffffffffffff81111561379857613797612ff4565b5b6137a48582860161363f565b9150509250929050565b600082825260208201905092915050565b60006137ca826132cc565b6137d481856137ae565b93506137df836132e8565b8060005b838110156138105781516137f78882613307565b97506138028361331f565b9250506001810190506137e3565b5085935050505092915050565b600082825260208201905092915050565b600061383982612ed3565b613843818561381d565b935061384e83612eef565b8060005b8381101561387f5781516138668882612f40565b975061387183612f58565b925050600181019050613852565b5085935050505092915050565b60006101408301600083015184820360008601526138aa8282613410565b91505060208301516138bf6020860182612f31565b50604083015184820360408601526138d78282613410565b915050606083015184820360608601526138f182826137bf565b9150506080830151848203608086015261390b82826137bf565b91505060a083015184820360a086015261392582826137bf565b91505060c083015184820360c086015261393f828261382e565b91505060e083015184820360e0860152613959828261382e565b915050610100830151848203610100860152613975828261382e565b915050610120830151848203610120860152613991828261382e565b9150508091505092915050565b600060208201905081810360008301526139b8818461388c565b905092915050565b6139c98161307e565b81146139d457600080fd5b50565b6000813590506139e6816139c0565b92915050565b60008060408385031215613a0357613a02612fef565b5b6000613a11858286016130cb565b9250506020613a22858286016139d7565b9150509250929050565b600067ffffffffffffffff821115613a4757613a46613542565b5b613a5082613153565b9050602081019050919050565b6000613a70613a6b84613a2c565b6135a2565b905082815260208101848484011115613a8c57613a8b61353d565b5b613a978482856135ee565b509392505050565b600082601f830112613ab457613ab3613538565b5b8135613ac4848260208601613a5d565b91505092915050565b60008060008060808587031215613ae757613ae6612fef565b5b6000613af5878288016130cb565b9450506020613b06878288016130cb565b9350506040613b17878288016131e0565b925050606085013567ffffffffffffffff811115613b3857613b37612ff4565b5b613b4487828801613a9f565b91505092959194509250565b60008060408385031215613b6757613b66612fef565b5b600083013567ffffffffffffffff811115613b8557613b84612ff4565b5b613b918582860161363f565b9250506020613ba2858286016130cb565b9150509250929050565b7f4e487b7100000000000000000000000000000000000000000000000000000000600052602260045260246000fd5b60006002820490506001821680613bf357607f821691505b602082108103613c0657613c05613bac565b5b50919050565b7f4552433732313a20617070726f76616c20746f2063757272656e74206f776e6560008201527f7200000000000000000000000000000000000000000000000000000000000000602082015250565b6000613c68602183613118565b9150613c7382613c0c565b604082019050919050565b60006020820190508181036000830152613c9781613c5b565b9050919050565b7f4552433732313a20617070726f76652063616c6c6572206973206e6f7420746f60008201527f6b656e206f776e6572206f7220617070726f76656420666f7220616c6c000000602082015250565b6000613cfa603d83613118565b9150613d0582613c9e565b604082019050919050565b60006020820190508181036000830152613d2981613ced565b9050919050565b7f4552433732313a2063616c6c6572206973206e6f7420746f6b656e206f776e6560008201527f72206f7220617070726f76656400000000000000000000000000000000000000602082015250565b6000613d8c602d83613118565b9150613d9782613d30565b604082019050919050565b60006020820190508181036000830152613dbb81613d7f565b9050919050565b7f4e487b7100000000000000000000000000000000000000000000000000000000600052601160045260246000fd5b6000613dfc826131bf565b9150613e07836131bf565b9250828201905080821115613e1f57613e1e613dc2565b5b92915050565b60008190508160005260206000209050919050565b60006020601f8301049050919050565b600082821b905092915050565b600060088302613e877fffffffffffffffffffffffffffffffffffffffffffffffffffffffffffffffff82613e4a565b613e918683613e4a565b95508019841693508086168417925050509392505050565b6000819050919050565b6000613ece613ec9613ec4846131bf565b613ea9565b6131bf565b9050919050565b6000819050919050565b613ee883613eb3565b613efc613ef482613ed5565b848454613e57565b825550505050565b600090565b613f11613f04565b613f1c818484613edf565b505050565b5b81811015613f4057613f35600082613f09565b600181019050613f22565b5050565b601f821115613f8557613f5681613e25565b613f5f84613e3a565b81016020851015613f6e578190505b613f82613f7a85613e3a565b830182613f21565b50505b505050565b600082821c905092915050565b6000613fa860001984600802613f8a565b1980831691505092915050565b6000613fc18383613f97565b9150826002028217905092915050565b613fda8261310d565b67ffffffffffffffff811115613ff357613ff2613542565b5b613ffd8254613bdb565b614008828285613f44565b600060209050601f83116001811461403b5760008415614029578287015190505b6140338582613fb5565b86555061409b565b601f19841661404986613e25565b60005b828110156140715784890151825560018201915060208501945060208101905061404c565b8683101561408e578489015161408a601f891682613f97565b8355505b6001600288020188555050505b505050505050565b7f4552433732313a20696e76616c696420746f6b656e2049440000000000000000600082015250565b60006140d9601883613118565b91506140e4826140a3565b602082019050919050565b60006020820190508181036000830152614108816140cc565b9050919050565b7f4552433732313a2061646472657373207a65726f206973206e6f74206120766160008201527f6c6964206f776e65720000000000000000000000000000000000000000000000602082015250565b600061416b602983613118565b91506141768261410f565b604082019050919050565b6000602082019050818103600083015261419a8161415e565b9050919050565b60006141ac826131bf565b91506141b7836131bf565b92508282039050818111156141cf576141ce613dc2565b5b92915050565b7f555249206e6f74206578697374206f6e20746861742049440000000000000000600082015250565b600061420b601883613118565b9150614216826141d5565b602082019050919050565b6000602082019050818103600083015261423a816141fe565b9050919050565b7f4f776e61626c653a206e6577206f776e657220697320746865207a65726f206160008201527f6464726573730000000000000000000000000000000000000000000000000000602082015250565b600061429d602683613118565b91506142a882614241565b604082019050919050565b600060208201905081810360008301526142cc81614290565b9050919050565b7f4552433732313a207472616e736665722066726f6d20696e636f72726563742060008201527f6f776e6572000000000000000000000000000000000000000000000000000000602082015250565b600061432f602583613118565b915061433a826142d3565b604082019050919050565b6000602082019050818103600083015261435e81614322565b9050919050565b7f4552433732313a207472616e7366657220746f20746865207a65726f2061646460008201527f7265737300000000000000000000000000000000000000000000000000000000602082015250565b60006143c1602483613118565b91506143cc82614365565b604082019050919050565b600060208201905081810360008301526143f0816143b4565b9050919050565b7f4552433732313a206d696e7420746f20746865207a65726f2061646472657373600082015250565b600061442d602083613118565b9150614438826143f7565b602082019050919050565b6000602082019050818103600083015261445c81614420565b9050919050565b7f4552433732313a20746f6b656e20616c7265616479206d696e74656400000000600082015250565b6000614499601c83613118565b91506144a482614463565b602082019050919050565b600060208201905081810360008301526144c88161448c565b9050919050565b7f4f776e61626c653a2063616c6c6572206973206e6f7420746865206f776e6572600082015250565b6000614505602083613118565b9150614510826144cf565b602082019050919050565b60006020820190508181036000830152614534816144f8565b9050919050565b7f4552433732313a20617070726f766520746f2063616c6c657200000000000000600082015250565b6000614571601983613118565b915061457c8261453b565b602082019050919050565b600060208201905081810360008301526145a081614564565b9050919050565b7f4552433732313a207472616e7366657220746f206e6f6e20455243373231526560008201527f63656976657220696d706c656d656e7465720000000000000000000000000000602082015250565b6000614603603283613118565b915061460e826145a7565b604082019050919050565b60006020820190508181036000830152614632816145f6565b9050919050565b600081519050919050565b600082825260208201905092915050565b600061466082614639565b61466a8185614644565b935061467a818560208601613129565b61468381613153565b840191505092915050565b60006080820190506146a36000830187613222565b6146b06020830186613222565b6146bd6040830185613728565b81810360608301526146cf8184614655565b905095945050505050565b6000815190506146e981613025565b92915050565b60006020828403121561470557614704612fef565b5b6000614713848285016146da565b9150509291505056fea2646970667358221220a13b359177f66872efeee4b750bbd87e0b940ef739e1d429c6b881924ff5ee1164736f6c63430008110033",
  "linkReferences": {},
  "deployedLinkReferences": {}
}